:020000040800F2
:1000000008100020E94A0008794800087B480008E9
:100010007D4800087F480008814800080000000073
:1000200000000000000000000000000083480008FD
:10003000854800080000000087480008894800083B
:10004000F94A0008FD4A0008014B00088D480008E5
:10005000054B0008094B0008CB480008D1480008B0
:100060000D4B0008114B0008C548000891480008D6
:10007000154B0008194B00081D4B0008214B0008C8
:10008000254B0008294B00082D4B0008314B000878
:10009000354B0008394B00083D4B0008414B000828
:1000A000454B0008494B00084D4B0008514B0008D8
:1000B000554B0008594B00085D4B0008614B000888
:1000C000654B0008694B00086D4B0008714B000838
:1000D000974800089D480008754B0008794B0008B8
:1000E0007D4B0008814B0008854B0008894B0008B8
:1000F000A3480008A7480008AB4800088D4B00083B
:10010000914B0008954B0008994B00089D4B000847
:10011000A14B0008A54B0008A94B0008AD4B0008F7
:10012000B14B0008B54B0008AF480008B94B0008B8
:10013000BD4B0008C14B0008C54B000838B5040092
:1001400009D004F18405696809B900F01EF800F0CF
:1001500021F8012801D1012032BDA06A08B100F0C8
:100160002AF800F00AF821F02A01FFE7816000F088
:100170001BF8BDE8324000F08EBB2068416821F4D6
:1001800090414160206881687047002028702046B7
:1001900000F0B6BF2421696020680268520852004E
:1001A0000260204600F00EBA2068016841F00101AB
:1001B000016020467047204600F00ABB284600F048
:1001C000BEBB10B5034603F15404606B20283CD13C
:1001D00009B1100001D1012010BD19652280628093
:1001E000002060620021E16321206063216998683A
:1001F000B1F1005F15D1B0F5805F04BF1869002828
:1002000019BFDFF8AC036062DFF8A813616200F089
:100210005EFC41F4000144E800100028F7D1002002
:1002200010BDB0F5805F04BF1869002807BFDFF874
:1002300088136162DFF88403606200F043FC41F0E0
:10024000800100F08DF9F8D1E9E7022010BD38B542
:100250000346D3F88C0020280AD109B1100001D13F
:10026000012032BD00F006F8BDE8384000F0ABBB1D
:10027000022032BD0020D866DFF844431868A0424F
:100280000CD04068040209D5186850E8004F0546B4
:1002900044F0806445E800400028F5D118467047D6
:1002A0002DE9F041054640F60F0C2A68D369104647
:1002B00013EA0C0F0768966805F15C0407F020004C
:1002C00003F020010DD1002914D010B9F00040F145
:1002D0008C80A169002900F03B812846BDE8F041EF
:1002E0000847DFF854C816EA0C0F04BFDFF84CE8E3
:1002F00017EA0E0F79D05FEAC37E48BF5FEAC7589E
:1003000007D54FF0010EC2F820E0626B42F0010207
:1003100062639A070AD5F20708D5D5F80080022251
:10032000C8F82020626B42F0040262635A070AD5C3
:10033000F20708D5D5F800800422C8F82020626BA7
:1003400042F0020262631A070DD5002808BF16EAC0
:100350000C0F08D0D5F800C00822CCF82020626B22
:1003600042F0080262631A0509D57B0107D52F68A0
:100370004FF400623A62626B42F020026263626B89
:10038000002A31D031B108B9F00003D5A16909B113
:1003900028468847606B29688A68510602D410F0A5
:1003A000280F1CD000F0E0F828688168480611D5B5
:1003B00000F0DDF8FCD1606A60B10FF299718163E1
:1003C000606A01F01BF800280ED0606A816BBDE8FE
:1003D000F04108472846BDE8F04101F0E9B8284659
:1003E00001F0E6F800206063B2E02069012871D1D5
:1003F000D8066FD5F9066DD5102010622968886877
:10040000410630D5616A0868406880B20028EBD0A8
:1004100022889042E8DA6080086801688A061AD467
:1004200000F0B3F821F4807100F09AF8F8D100F0F0
:1004300079FAFCD100F0AEF8FCD120202063002135
:10044000216100F0A2F821F0100100F089F8F8D144
:10045000606A00F09FFF0220606121886088091AAD
:1004600089B2284632E0228861886088511A0028C3
:100470001CBF88B200286BD02A46106850E8003FA5
:10048000054623F4907300F065F8F6D1106800F18A
:10049000080300F1080653E8003FDFF818030340A3
:1004A00046E800300028F1D120202063002323619A
:1004B000A361136853E8003F156823F0100300F0B0
:1004C00049F8F6D10220606189B21046BDE8F041DA
:1004D00001F06FB8D80209D5710207D54FF480102A
:1004E00010622846BDE8F04101F064B8180609D54D
:1004F000390601D4300205D5E16949B32846BDE883
:10050000F0410847580611D579060FD500F03DF89F
:1005100021F0400100F024F8F8D12020E062002111
:10052000E1612846BDE8F04101F07FB8180206D528
:10053000790004D52846BDE8F04101F089B8D8011A
:1005400048BF002F04D52846BDE8F04101F081B82E
:10055000BDE8F08145E800300028704721F4F071D3
:1005600042E8001000287047284600F0B8BA296811
:1005700001F1080252E8001F286800F1080321F089
:10058000400143E8001000287047286850E8001F29
:1005900002467047286800F1080151E8001F00F189
:1005A000080321F0400143E80010002870470000D4
:1005B000E90B0008450C0008910B0008670B0008C8
:1005C00000800040F8B50446DFF8C40822681368CC
:1005D000A168034020690B4361690343E0690B4351
:1005E0000343136000255168E06821F44051014342
:1005F0005160A369DFF89C188A421CBF206A03433C
:100600009668DFF84009DFF840E9DFF840790640F6
:100610003343936068A6D36A606A1B0940EA0313F8
:10062000D3627245DFF828094FF4004338D13F68A0
:1006300007F00307032F4CD8DFE807F002454248D4
:100640004FF0010CE169B1F5004F4FF6F07740F043
:100650007F80BCF1010F09D0BCF1020F0AD0BCF1C0
:10066000040F70D0BCF1080F70D098E001F084FB4B
:10067000002814D0626A616836F81230B0FBF3F0DB
:100680004A0802EB4002B2FBF1F0A0F11001B942BE
:10069000EBD20740C0F3420007432068C7607FE009
:1006A0008A4216D13F6817F4406723D0B7F5806FB0
:1006B00009D0B7F5006F03D0B7F5406F06D008E05A
:1006C0004FF0020C07E04FF0040C04E04FF0080C70
:1006D00001E04FF0100C8A42B4D1BCF1000F09D0F8
:1006E000BCF1020F0AD0BCF1040F15D0BCF1080F09
:1006F00015D054E001F038FB002851D0616A36F87B
:100700001120B0FBF2F6626802EB42018E4246D342
:100710001303B34205D242E001F0DCFAECE71846DD
:10072000ECE75008002110EB062051EB1661002386
:1007300001F0BAFBA0F54076DFF84079BE422ED238
:100740002168C8602CE001F0C5FA91E7184691E7EE
:10075000BCF1010F09D0BCF1020F09D0BCF1040FAC
:1007600018D0BCF1080F18D019E001F005FBB8B1A2
:10077000626A36F812306168B0FBF3F000EB5100AA
:10078000B0FBF1F0A0F11001B94208D2226880B2AA
:10079000D06005E001F09EFAE9E71846E8E7012598
:1007A00004F168000121002341800180C3600361DE
:1007B0002846F2BDFEFFFFEF010002000400060024
:1007C00008000A000C00100020004000800000011A
:1007D00090F82810CA0706D502685368C16A23F446
:1007E00000330B43536090F828108A0706D502683F
:1007F0005368016B23F480330B43536090F8281047
:100800004A0706D502685368416B23F480230B43E3
:10081000536090F828100A0706D502685368816B68
:1008200023F400430B43536090F82810CA0606D502
:1008300002689368C16B23F480530B43936090F874
:1008400028108A0606D502689368016C23F40053C9
:100850000B43936090F828104A0610D5026853683D
:10086000416C23F480130B435360436CB3F5801F3A
:1008700005D15368816C23F4C0030B43536090F897
:1008800028100A0606D501684A68C06C22F40022C6
:1008900002434A607047F8B5054605F1840400201C
:1008A000E0606FF07E4701F083FB06462868016830
:1008B0000A0711D50097334600224FF40011FFF7C5
:1008C0007DFC48B1FFF761FE21F08001FFF748FE93
:1008D000F8D12020606017E0286801684A0717D522
:1008E0000097334600224FF48001FFF767FC78B190
:1008F000FFF74BFE21F49071FFF732FEF8D100F0C4
:1009000011F8FCD12020A060002121700320F2BD4D
:10091000202060602021A1600020E8660021296776
:100920002070F2BD286800F1080151E8001F490855
:1009300000F10803490043E80010002870472DE942
:10094000F041069C05460E4690461F462868C16940
:100950003140B1420CBF01200020404531D114F19B
:10096000010FF3D001F024FBC01B844200D314B963
:100970000320BDE8F081286801684A07E6D5C1690F
:10098000080704D42968C8690105DFD50CE02A6886
:1009900008201062FFF7E8FD05F184000821C1601E
:1009A000002202700120E4E729684FF40060086229
:1009B000FFF7DAFD05F184002021C16000220270FA
:1009C000D6E70020D5E750B5034600209965FF24FF
:1009D00003F15C010A804A8088619868B0F5805F05
:1009E00004D1186990B940F2FF140FE018B91869E2
:1009F00060B17F2007E0B0F1805F06D1186908B9C7
:100A00007F2403E03F20888001E000248C800020C8
:100A1000486322240C63186800F1080454E8004F6E
:100A200000F1080644F0010446E800400028F2D135
:100A30008868B0F1005F23D18889824220D39A6808
:100A4000B2F5805F04BF1869002803D10FF2554248
:100A50008A610BE00FF299348C61186930B100F0B3
:100A600031F841F48071FFF77BFDF8D100F02FF8E9
:100A700041F0805144E800100028F7D1002050BD1B
:100A80009868B0F5805F04BF186900280CD10FF298
:100A90006D228A61186850E8001F024641F020016B
:100AA000FFF75EFDF6D1E9E70FF201228A611869CE
:100AB0000028EFD000F006F841F49071FFF750FDE8
:100AC000F8D1DBE7196851E8001F1A687047186809
:100AD00000F1080151E8001F00F10804704710B54B
:100AE00000F011F8FCD100F018F8FCD1C16E01291A
:100AF00002D100F025F8FCD12021C0F88C10002292
:100B0000C266426710BD016851E8002F0B4622F40F
:100B1000907243E8002100297047016801F1080242
:100B200001F1080452E8002FDFF854150A4044E8A8
:100B3000002100297047000001000010200100047E
:100B4000026852E8002F036822F0100243E80021F7
:100B500000297047806A00F1560100220A810023B3
:100B60000B8000F025BDD0F8881021290FD1B0F8F6
:100B7000561001B923E0016D03680A789A62016D8D
:100B80004A1C0265B0F856104A1EA0F8562070475D
:100B9000D0F88810212911D1B0F8561001B90EE013
:100BA000016D03680A88C2F308029A62016D8A1C0B
:100BB0000265B0F856104A1EA0F856207047026829
:100BC00052E8002F036822F0800243E80021002948
:100BD000F5D1016851E8002F0B4642F0400243E88E
:100BE00000210029F5D17047D0F88810212900D0C4
:100BF000704730B500F15602938A0DE00168CC6968
:100C0000250608D5046D25788D62016D4C1C0465A0
:100C10001588691E11805B1E99B241B111880029A7
:100C2000ECD100F035F8FCD100F002F8FCD130BD79
:100C3000016851E8002F0B4642F0400243E80021D2
:100C400000297047D0F88810212900D0704730B5AE
:100C500000F15602938A0FE00168CC6925060AD597
:100C6000046D2588C5F308058D62016D8C1C046533
:100C70001588691E11805B1E99B241B11188002947
:100C8000EAD100F005F8FCD1FFF7D2FFFCD130BD6E
:100C9000026802F1080151E8002F036803F108041B
:100CA00022F4000244E800210029704738B500F022
:100CB0004DF81ED14B6A9188846D0B402370816D75
:100CC0004B1C00F049F818D100F04DF800F060F826
:100CD000FCD100F06AF80BD10023136100F04EF84C
:100CE000FCD10168CB69DC0644BF10230B6276E0BF
:100CF0007AE0886940F00800886131BD38B500F0BD
:100D000025F81ED14B6A9188846D0B402380816D3C
:100D10008B1C00F021F818D100F025F800F038F80D
:100D2000FCD100F042F80BD10023136100F026F84B
:100D3000FCD10168CB69DC0644BF10230B624EE096
:100D400052E0886940F00800886131BD00F15C0222
:100D50000168136B222B7047836551884B1E5380AB
:100D6000518800297047036853E8003F046823F462
:100D7000907344E800310029F5D17047016851E8CB
:100D8000003F0C4623F0100344E80031002970476F
:100D9000016801F1080353E8003F5B0801F1080511
:100DA0005B0045E8003100297047202111630023D2
:100DB000936100215161374B016899420CD0496819
:100DC0000B0209D5016851E8003F0C4623F080630F
:100DD00044E800310029F5D11169012970471188D3
:100DE000BDE8344000F0E5BBBDE8324000F013BC84
:100DF0002DE9F84300F0B4F845D1A08980B96088A6
:100E0000002842D0A18988423FDA00F0EEF89D48E0
:100E1000A06100F0D3F8FCD137E0304600F0FBFBD6
:100E2000A806ECD500F096F80870B06D421C00F0F2
:100E3000F2F812D0E90748BF5FEAC95200F09EF805
:100E400003D5F90701D500F0DEF800F0A0F820B1D5
:100E5000304600F0ADFB0020606360880028DFD1E1
:100E600000F0A2F8FCD100F0B3F8FCD100F0ECF8EF
:100E7000D3D100F0D9F844BF102101622188304657
:100E800000F097FBCCE700F007F8BDE8F183000025
:100E9000F369FFCF00800040816941F00801816162
:100EA000704700002DE9F84300F05AF845D1A089B9
:100EB00080B96088002842D0A18988423FDA00F0DA
:100EC00094F87148A06100F079F8FCD137E0304621
:100ED00000F0A1FBA806ECD500F03CF80880B06D4E
:100EE000821C00F098F812D0E90748BF5FEAC952A7
:100EF00000F044F803D5F90701D500F084F800F0BC
:100F000046F820B1304600F053FB00206063608853
:100F10000028DFD100F048F8FCD100F059F8FCD1EE
:100F200000F092F8D3D100F07FF844BF10210162A5
:100F30002188304600F03DFBCCE7FFF7ADFFBDE870
:100F4000F1830000FFF4FF110038014088000058D1
:100F50000024F4003168486AB16D08EA0000704767
:100F6000064606F15C043068B4F80480C5690146A1
:100F7000D1F800908768216B2229704705D501219F
:100F80000162606B40F001006063A807704768076A
:100F900008D5F90706D5326804201062606B40F06E
:100FA00002006063606B7047316851E8001F32686F
:100FB00021F4807142E8001000287047316851E840
:100FC000001F326841F0200142E8001000287047FD
:100FD000306800F1080100F1080351E8001F2848BB
:100FE000014043E8001000287047306800F1080213
:100FF00052E8001F00F1080821F0805148E8001075
:101000000028F2D17047326802201062606B40F015
:10101000040060637047B2656088411E618030687B
:10102000C56915F0070F704700212161306850E84D
:10103000001F024621F0100142E800100028F5D1FF
:101040003068C169CA067047202020630021A16171
:10105000002060610D49306888420CD04068010270
:1010600009D5306850E8001F024621F0806142E84F
:1010700000100028F5D120690128704700FD0F00FD
:10108000FEFFFFEFAD0C0008FD0C000800800040E3
:101090007D4900E07D4981B00A6802430A60096821
:1010A00008400090009801B0704780B54FF40020D0
:1010B000FFF7F0FF002200212E2000F099FFBDE88D
:1010C00002402E2000F0B2BF00687149884200D073
:1010D000704780B54FF48010FFF7DCFF002200213D
:1010E0002C2000F085FF2C2000F0A0FF0022002122
:1010F0002D2000F07DFFBDE802402D2000F096BFBE
:1011000038B59AB004461421684600F0E5FF502136
:1011100006A800F0E1FF20685E495F4D884236D1A5
:101120000222002106920D9106A800F0EFFF08B1FF
:1011300001F04DFA286840F0010028602968574DF9
:1011400001F00101059105980120FFF7A1FF02219F
:101150000191002202920C200321009003910822A9
:10116000049269464FF0904001F032FA4C482860F2
:10117000112100F048F808B101F029FAE567AC62E6
:1011800000220021252000F033FF252037E04549CB
:10119000884236D10122002106920C9106A800F067
:1011A000B5FF08B101F013FA686840F48040686048
:1011B00068683D4D00F48040059005980220FFF7D7
:1011C00067FF0221019101220292C02003210090B9
:1011D0000391072204926946344801F0F9F9344832
:1011E00028600F2100F00FF808B101F0F0F9E56771
:1011F000AC6200220021242000F0FAFE242000F03E
:1012000015FF1BB030BD696000201022E86080210E
:101210006861A861E8612862AA602961284600F037
:101220004DB818B595B00446502101A800F054FF00
:10123000226820498A4224D14FF400634FF4807120
:101240000193119101A800F061FF08B101F0BFF90D
:101250001948816B41F4004181630021026842F426
:10126000806202600022006800F4806000900098B4
:10127000032000F0BDFE032000F0D8FE204601F060
:101280002BFB16B010BD00004C0000585000005859
:10129000000C0058008000405C0000581015002031
:1012A000080002400038014070150020000400488A
:1012B00044040240002800405800005838B504009B
:1012C00001D1012032BD2168DFF8BC22914204F136
:1012D000240500F046F80221697020680268A068C1
:1012E000E16823686FF30E12024320690A436169C3
:1012F0000243A0690A43E1690243206A0A430243A8
:101300001A60204600F012F9A068B0F5804F04BFC3
:10131000002161602079696A00F03F0000F014F854
:1013200038B1052805D2204600F01DF900F012F86A
:1013300003E0002028636863A8630021A9610120FD
:1013400068702970002032BD0860A96AE86A4860A8
:1013500060687047296B00200860696BA86B486063
:1013600070470BD2DFF8240241181423B1FBF3F1CC
:101370008900DFF81C222962EA617047DFF8140255
:1013800041181422B1FBF2F18900DFF80C02296246
:10139000E861704740B100F124014A78022A05D083
:1013A0000420886100220A700120704702681368D7
:1013B00023F00E0313604A6A136823F480731360EA
:1013C00000680268520852000260012091F8202053
:1013D000CB6902F01C02904058608A6AC86A50606B
:1013E000086B30B1026822F480720260486B8A6B2D
:1013F000426001224A7000200870704738B500F141
:10140000240200245178022903D004209061012491
:1014100028E001680B6823F00E030B6001680D687B
:101420006D086D000D60516A0B6823F480730B60CA
:10143000012192F82030D56903F01C0399406960BE
:10144000936AD16A5960116B31B10B6823F48073D0
:101450000B60516B936B4B60012353701470516997
:1014600001B18847204632BDF8B500F124010423BC
:10147000CA6914680268156891F8206006F01C06B5
:1014800003FA06F73C4210D06F070ED51468A50684
:1014900003D4146824F00404146000F03EF8C96812
:1014A000002939D0BDE8F4400847022303FA06F7C3
:1014B0003C4213D0AF0711D51468A50605D41468B3
:1014C00024F00A04146001224A7000F026F8002279
:1014D0000A70896801B3BDE8F4400847082303FA9D
:1014E00006F6344218D02B0716D5146824F00E04E3
:1014F0001460012291F82030CC6903F01C039A405B
:101500006260012301228A614B7000220A7009691E
:1015100011B1BDE8F4400847F1BD91F82020CC6935
:1015200002F01C02934063607047000010B5416CEC
:101530000268154B89089A4239BF184C04EB8101A7
:10154000174B03EB8101816402F0FF02083A14217A
:10155000B2FBF1F1012301F01F01124AC26403FA48
:1015600001F1016510BD01790F4A104B836501F04F
:101570003F0102EB81024265491E012201F0030195
:101580008A40C2657047000008040240F8FFFDBFB2
:1015900000000240F8FBFDBF0004024000080240CA
:1015A0001C08024080080240FC080240400902403A
:1015B0007047704770470EE0026843680244083085
:1015C0005FEAC37C44BF4B445B1E52F804CB43F834
:1015D00004CB091FF9D150F8041B0029ECD1704746
:1015E000002800D0704710B5154C00F00FF8BDE88A
:1015F0001040FEF72CBE002800D0704710B5114CEB
:1016000000F004F8BDE81040FEF7DBBD0E48236093
:101610000E4B0360704700680C49884204D1084AA9
:101620001068002818BF00477047006807498842C3
:1016300004D1044A1068002818BF00477047000012
:1016400034160020381600200C130020003801400A
:10165000704770474FF0B040006800F0F000B028CD
:1016600088BFB0207047DFF8CC070068000100F0A9
:10167000F00070472DE9F04104004BD0207881063E
:101680004FF0B04534D5A868E96810F00C0001F0BF
:10169000030103D00C2808BF01293DD1E0690028CF
:1016A00038D0FFF7D7FF616A88420CD2084600F0B5
:1016B00075FB00282ED12968606A21F0F0010143F2
:1016C00000F01AFA09E0286820F0F000014300F069
:1016D00013FA606A00F062FBE0B900F037FBDFF854
:1016E00058170860DFF85407006801F00FF988B94F
:1016F0002078C10768D5A868E96800F00C000828C0
:1017000001F0030103D00C2808BF032934D160681D
:10171000002859D10120EDE1E069E8B1296841F0E4
:10172000010100F0D4FA06462868800706D400F0CC
:101730003FFC801B0328F7D30320DBE12868616AA4
:1017400020F0F000084328606868216A20F47F4098
:1017500040EA01206860CBE728684008400000F0BC
:101760008AFB064628684008C007C1D500F020FC67
:10177000801B0328F6D3DFE76068B0F5803F04D113
:10178000296841F48031296003E0286820F4803022
:101790002860606858B100F00BFC0646286880039A
:1017A00012D400F005FC801B6528F7D3C4E700F0D5
:1017B000FFFB06462868400CC00705D500F0F8FB83
:1017C000801B6528F6D3B7E72078810715D5A86870
:1017D000E96800F00C00042801F0030103D00C2894
:1017E00008BF022928D1E068002893D068682169E1
:1017F00020F0FE4040EA016068602168DFF8406642
:1018000011F0180F00F08B806069002877D0C806AF
:10181000706858D5800730D4716841F0010171605B
:1018200000F0C6FB07467068800726D400F0C0FBB6
:10183000C01B0328F7D37FE7E06870B1296841F443
:10184000807100F044FA064628684005CED400F0C6
:10185000AFFB801B0328F7D36EE7286820F4807065
:1018600000F009FB06462868800AC007C5D500F0CD
:101870009FFB801B0328F6D35EE7706840F00400EE
:1018800000F043F907467068000705D400F090FBAC
:10189000C01B0428F7D34FE77068A16920F470607B
:1018A00040EA0120706070684008400000F02DF9A7
:1018B000074670684008C00731D500F079FBC01BAF
:1018C0000328F6D338E740F0010000F01EF9074680
:1018D0007068800705D400F06BFBC01B0328F7D3AA
:1018E0002AE7706820F0040070607068C008C007C4
:1018F00015D500F05DFBC01B0428F6D31CE770680B
:1019000020F0040000F001F907467068C008C00725
:10191000C9D500F04DFBC01B0428F6D30CE7207896
:1019200041074BD5DFF81C753868C1050ED401F0AE
:101930000FF800F03DFB80463868C10506D400F082
:1019400037FBA0EB08000328F6D3F5E6A0680128D2
:1019500004D1306840F00100306010E005283068A4
:1019600006D140F004003060316841F0010105E02B
:10197000400840003060316821F004013160A06807
:1019800041F2893760B100F013FB80463068800770
:1019900014D400F00DFBA0EB0800B842F6D3CBE660
:1019A00000F006FB804630684008C00706D500F00E
:1019B000FFFAA0EB0800B842F5D3BDE62078410657
:1019C00020D5A06A0028B0680DD040F0010000F0DA
:1019D00077F90746B068800714D400F0E9FAC01B15
:1019E0000328F7D3A8E64008400000F069F907464D
:1019F000B0684008C00705D500F0DAFAC01B03281C
:101A0000F6D399E6E06A002873D0A968EA6802284C
:101A100001F00C0159D1236B02F00300984202BF80
:101A200002F07000636B984213D1A36BC2F30620DF
:101A3000984202BF02F47810E36B984209D1236CFC
:101A400002F06060984202BF02F06042606C824225
:101A500037D00C293AD0286841013FF55BAE00F041
:101A600007FA06462868810105D500F0A1FA801B17
:101A70000328F7D360E6E868DFF8CC13226B084050
:101A8000616B1043A26B0843E16B40EA0220226CB9
:101A90000843616C10430843E860286840F0807098
:101AA0002860E96841F08051E96000F081FA04465D
:101AB000286881011DD400F07BFA001B0328F7D3AE
:101AC0003AE62868810114D4E7E70C293FF422AEF6
:101AD00000F0CEF904462868810105D500F068FAC7
:101AE000001B0328F7D327E6E868DFF860130840F7
:101AF000E8600020BDE8F08129606968206A21F46F
:101B00007F4141EA002169607047706000F050BA7F
:101B10002DE9F8430400884600F0AE80DFF830532A
:101B200000F0C9F80CD200F0CEF8064600F0C3F879
:101B300006D000F03DFA801B0228F7D90320B8E058
:101B4000207881074FF0B04611D5B268A06822F026
:101B5000F0020243B26000F02BFA0746B068C003FF
:101B600005D400F025FAC01B0228F7D9E6E7207853
:101B7000DFF8C072810612D53A68606922F0F0027F
:101B800002433A6000F014FA81463868800306D4B4
:101B900000F00EFAA0EB09000228F6D9CEE7207873
:101BA000410613D53868A1690009000140EA111007
:101BB000386000F0FDF981463868C00306D400F0B3
:101BC000F7F9A0EB09000228F6D9B7E7207841071A
:101BD00011D5B268E06822F4E0620243B26000F01E
:101BE000E7F90746B068800305D400F0E1F9C01BAF
:101BF0000228F7D9A2E72078010711D5B06821693A
:101C000020F4605040EAC10000F05AF80746B0687E
:101C1000400305D400F0CCF9C01B0228F7D98DE7AA
:101C20002078C1072AD56068022818D13168890355
:101C300022D5B268920840EA820000F041F80746D7
:101C4000B068616800F00C00B0EB810F16D000F0B6
:101C5000AFF9C01B41F289318842F1D36EE7032806
:101C600002D13168890103E00028316802D1890777
:101C7000DFD401E04905DCD401201AE0286800F037
:101C8000070080450BD200F01EF8044600F013F860
:101C900005D000F08DF9001B0228F7D94EE700F0BF
:101CA00055F86549086000F06FFEBDE8F24300F0AA
:101CB0002DBEBDE8F283286800F00700404570475C
:101CC000B06000F075B92968C90848EAC101296007
:101CD00000F06EB938B54FF0B0445F4DA16811F017
:101CE0000C0106D1FFF7B6FCC0F3031055F8200035
:101CF00032BD0429594A05D00829594804D1216820
:101D0000C90222D5104632BDE16801F00301022963
:101D100004D0032904D12168C90207D5104605E083
:101D2000FFF798FCC0F3031055F82000E168E26863
:101D3000E368C1F306214843C2F30211491C5B0F5B
:101D4000B0FBF1F05B1CB0FBF3F032BD80B5FFF7E8
:101D5000C1FF4049FFE7434A0968C1F3031152F844
:101D60002110B0FBF1F002BD80B5FFF7EFFF00F0EE
:101D700010F8C1F3022106E080B5FFF7E7FF00F09D
:101D800008F8C1F3C22112F8211001F01F01C84068
:101D900002BD3049344A09687047000070B52E49C9
:101DA000B1282EBFCC6AC0F3031051F82040FFF7D2
:101DB0005AFC054600F002FE2A49C5F3031251F809
:101DC00022102A4AB4FBF1F15FF00004B1FBF2F1FA
:101DD000B0F5007F30A220461FD100BF27A353F8E3
:101DE00020508D4216D2401C0328F8D9184D28687F
:101DF000C00844EAC00000F03EF80646286800F03B
:101E00000700A04213D000F0D3F8801B0328F5D3BD
:101E1000032070BD52F82040E8E700BF1BA353F831
:101E200020508D42F6D2401C0328F8D3DEE7002074
:101E300070BD0000080100585C1000203810002020
:101E400090000058000400588C80C111FCFFFEEE89
:101E50000040005808000058D44700080024F4004F
:101E60000048E80194470008384A000840420F0043
:101E7000286820F08070286000F09AB812000000F6
:101E800024000000360000004000000006000000B2
:101E90000C00000010000000000000000100000025
:101EA0000200000003000000D3BBD9B1B2F5803FAF
:101EB0005BD2022A1ED98C46B1FBF2F102FB11C3A0
:101EC0001B0443EA1043B3FBF2FC02FB1C3380B259
:101ED00040EA0343B3FBF2F002FB103240EA0C404D
:101EE00000237047022A05D98446B0FBF2F002FBBA
:101EF00010C270474AB105D100F0010249085FEAFB
:101F00003000704700220023704700F05FBD0B00D7
:101F10000200002100207047F7D300220023704701
:101F2000904271EB030CF2D370B5B1FA81F4B3FABD
:101F300083F52C1BA340C4F1200532FA05F6334388
:101F4000A2405FF00046E64002E05B085FEA320232
:101F5000841A71EB030524BF204629467641F4D349
:101F600002000B003000002170BD70B5B1FA81F4A1
:101F7000B2FA82F5C4F120046419B4F12006DAD370
:101F8000B2405FF00044F440002502E052085FEAEE
:101F90003303C61A71EB020E24BF3046714664410A
:101FA0006D41F3D302000B002000290070BD704783
:101FB00001484068704700BF30100020090102004E
:101FC00002D43C48815470473B4B02F00F021A4444
:101FD00002F8041C7047394B19684FF6FF020002E3
:101FE000114000F4E0600843354908431860704729
:101FF00070B5324B1C68C4F302230124C3F10705FA
:10200000052D2EBF0F2504FA05F56D1E1E1D072E8A
:1020100034BF0023DB1E2940994004FA03F3BDE8D6
:1020200070405B1E1A401143C8E70000010007D44E
:10203000012200F01F01234B8A40400943F8202071
:10204000704701000BD4012200F01F011E4B8A4093
:10205000400943F82020BFF34F8FBFF36F8F7047C5
:1020600010B5401EB0F1807F01D3012010BD174C88
:1020700060600F214FF0FF30FFF7A0FF0021A1604B
:1020800007202060002010BD010007D4012200F0CD
:102090001F010F4B8A40400943F820207047010080
:1020A00007D4012200F01F010A4B8A40400943F87F
:1020B0002020704700E400E018ED00E00CED00E0A7
:1020C0000000FA0500E100E080E100E010E000E03F
:1020D00000E200E080E200E0002200F079BC7047FE
:1020E000DFF81C130A68030903F47F2300019A43F5
:1020F00000F47F2000F081B9DFF804231368010C9D
:1021000023EA014343EA0043136070472DE9F84393
:10211000054600242878DFF8E8624106A0464FF023
:10212000B04743D5286B70B1B0F5800F06D0B0F53D
:10213000000F18BFB0F5400F2ED035E0F96841F41C
:102140008031F96029E0386820F080603860FFF75E
:102150002FFF81463868C00EC00707D5FFF728FF5C
:10216000A0EB09000228F5D9032415E000F02EF9B0
:10217000A96820F4781000F038F981463868000129
:1021800006D4FFF715FFA0EB09000228F6D9EBE70C
:1021900038696969084338613CB93168286B21F4B2
:1021A00040010143316001E00124A0462868010597
:1021B00032D5D6F80880286C08F4407880452AD0BB
:1021C00000F0C6FBB8F1000FB16805D1286C21F40E
:1021D00040710143B1601EE0B06840F48030B060EF
:1021E00021F44071B06820F48030B060286C014365
:1021F000B160B068C0070ED5FFF7DAFE8046B06860
:10220000800708D4FFF7D4FEA0EB080041F2893123
:102210008842F4D30324A0462878C10705D5326844
:10222000A869920840EA820232602978880705D5B9
:102230003168E86921F44061014331602978C806BA
:1022400044BFA86AFFF758FF2878810644BFE86AB0
:10225000FFF752FF2878410744BF286AFFF740FF85
:102260002878010744BF686AFFF73AFF2868C1056C
:1022700032D53268686B22F0406202433260696B8B
:10228000B1F1006F00F09CF8686BB0F1806F23D162
:1022900000F0A5F804463868C00EC00707D5FFF760
:1022A00087FE001B0228F6D94FF0030814E000F067
:1022B0008DF8E96820F0606000F097F8044638680F
:1022C000000105D4FFF774FE001B0228F7D9EBE7E5
:1022D0003869696908433861286881051CD5A86B8D
:1022E000B0F1804F18BFB0F1004F00D020B9316875
:1022F00021F04041084309E0316821F0404131605C
:1023000020F08050326822F0406210433060A86BA9
:10231000B0F1C05F00F054F82868410535D5326847
:10232000E86B22F0405202433260E96BB1F1005F8A
:1023300003D1F86840F48030F860E86BB0F1805F5A
:1023400023D100F04CF804463868C00EC00707D50A
:10235000FFF72EFE001B0228F6D94FF0030814E009
:1023600000F034F8296920F0604000F03EF804469F
:102370003868000105D4FFF71BFE001B0228F7D9BF
:10238000EBE738696969084338612868C10405D5F5
:10239000F268686C22F440420243F26029688804C3
:1023A0000BD5796AE86C21F0300101437962796AD2
:1023B000A86C890840EA810179624046BDE8F28351
:1023C00003D1F86840F08070F86070473869696838
:1023D00020F4FE4040EA01203861386970473968CE
:1023E00021F080613960FFF7E3BD08433861386848
:1023F00040F080603860FFF7DBBD10430860704735
:1024000088000058644900E0644981B00A680243CA
:102410000A60096808400090009801B0704710B544
:1024200000F09EFA00F0EEFA00F045F800F080F8B7
:102430005B4C5C48606204F1240000F041FC042025
:10244000FFF7E2FF0120FFF7DFFF0220FFF7DCFFCD
:102450000420FFF7D7FF0220FFF7D4FF0120FFF78A
:10246000D1FF00220F210B20FFF7C2FD0B20FFF749
:10247000DDFD00220F213A20FFF7BAFD3A20FFF7D9
:10248000D5FD49482060002147F6FF700F22E0602B
:102490006160A2602161A161E1616161204600F09B
:1024A00047FC00220021204600F091F900F0EEFAEE
:1024B00000F095FBFCE780B59AB0482108A8FFF72B
:1024C0000BFE1C2101A8FFF707FE00F041FA374878
:1024D000016821F01801016001213548026861F3AB
:1024E0004A2202600722006800F4C06000904FF4A6
:1024F00080330099089201214FF480720A910B9267
:102500004021002209930C91139208A8FFF7B2F81A
:102510006F20022101900291002203920492059201
:1025200006920792012101A8FFF7F2FA1BB000BD45
:1025300080B594B050216846FFF7CEFD4FF440526D
:102540004FF48041009211910222102112921391B6
:102550006846FFF7DBFD15B000BD10B5154C1648F9
:1025600020604FF461210C20606100224FF4004094
:10257000E06100F023F82046FDF7E0FD0021204651
:1025800000F096FC0021204600F09DFC2046BDE8AE
:10259000104000F06FBC0000480000584C0000588C
:1025A000B0140020000C0058002800409000005893
:1025B000000400580C130020003801406160A26044
:1025C000E2602261A26122626262A2627047704789
:1025D0002DE9F04F00276B4A6B4B4FF00F08054673
:1025E0000E4638E0694CA54214BF072404248C40F1
:1025F000674944EA0E0441F82C40C143D3F800C0B7
:10260000746801EA0C0CE40248BF40EA0C0CC3F801
:1026100000C0D3F804C0746801EA0C0CA40248BFDF
:1026200040EA0C0CC3F804C0D2F800C0746801EA98
:102630000C0CE40348BF40EA0C0CC2F800C0D2F80E
:1026400004C001EA0C0C7168890348BF40EA0C0C15
:10265000C2F804C07F1C316831FA07F000F08280B4
:102660000124BC4014EA0100F4D04FEA470C0321D6
:1026700001FA0CF16FEA010E716801F00309B9F17A
:10268000010F1CBF01F00301022912D1A968D6F87D
:102690000C900EEA010109FA0CF949EA0101A9605E
:1026A000696821EA04047168C1F30011B9400C4360
:1026B0006C60B900347904F00304032C21D0EC6879
:1026C000D6F808900EEA040409FA0CF949EA040461
:1026D000EC60347904F00304022C12D1FC0805EB01
:1026E000840401F01C09D4F820A008FA09FB2AEAA6
:1026F0000B0AD6F810B00BFA09F949EA0A09C4F82E
:1027000020902C680EEA040E347904F0030404FAD5
:102710000CF444EA0E0CC5F800C0746814F4403F91
:1027200098D0DFF86CE04FEA970C5EF82C4001F08F
:102730000C0108FA01FE24EA0E0EB5F1904F08BF15
:1027400000240ED0134CA54208BF012409D0124C1E
:10275000A54208BF022404D0104CA5427FF442AF2A
:10276000032444E7BDE8F08F0AB1816170478162BC
:1027700070470B4A136801460B421CBF116000F002
:1027800036BA70478008005800080058001000480A
:10279000080001400004004800080048000C004800
:1027A0000C0800588A60FF210268516280F82130CD
:1027B000002180F820100020704720684762032124
:1027C00084F82110002084F82000032070472DE9B0
:1027D000F84300F047F808BF022038D000F04FF867
:1027E0000ED5FFF7E5FB05462068C168480707D509
:1027F000FFF7DEFB401B4045F6D3FFF7DEFF26E088
:1028000000F037F800F052F8FFF7D2FB05462068D9
:10281000C1684A0705D4FFF7CBFB401B4045F6D300
:10282000EBE7C0F81490206800F013F81D48026828
:1028300042F4002202601C48016841F4002101605A
:102840002068816841F48041816000F037F8BDE87C
:10285000F2838168C908C9008160206881680E43DD
:10286000866070470446894694F820001646012881
:1028700070472068816821F4806181607047012081
:1028800084F82000022184F82110CA2022685062B6
:10289000532120684162FF2720688168480540F283
:1028A000E938704780080058000800582068C1685F
:1028B00001F0800161F49061C16070472068816817
:1028C00041F48061816001212068476284F8211011
:1028D000002084F82000704790F82010012901D1D1
:1028E00002207047012180F82010022280F8212068
:1028F000CA2103685962532201684A6201230168B0
:102900008A6842F02002FFF74DBF000070B50F4EFD
:10291000044630780025A8B1FFF718FA32784FF452
:102920007A71B1FBF2F2B0FBF2F0FFF799FB48B914
:10293000102C07D2002221464FF0FF30FFF758FB42
:10294000B46000E00125284670BD00BF30100020B3
:102950000248016841F4807101607047000400582A
:10296000134810B5016841F4807101600320FFF73E
:1029700032FB0020FFF7CAFF0024002814BF012407
:10298000FEF793FB204610BD0A488068704709484F
:1029900000787047084805E00748016841F00201E7
:1029A00001607047016841F001010160704700005B
:1029B0000040005830100020042004E0DFF8080038
:1029C000006800F4C06070470004005870470000C1
:1029D00000B500BF130096469446103928BFA0E802
:1029E0000C50FAD85FEA417C28BF0CC048BF40F8C1
:1029F000042BC90728BF20F8022B48BF00F8012B81
:102A000000BD00001CB59C499C4C4FF40040086080
:102A1000606C40010ED5606CC0000BD4FFF798FFCE
:102A2000FFF796FF206C40F480302064206C20F487
:102A3000803020643F22206840F4801020602168AC
:102A400001F4801100913F2100988D48416042615E
:102A5000016841F47C110160026942F47C12026158
:102A6000016841F03F010160026942F03F020261EA
:102A7000002000F07BFA40B180798249E164E26C89
:102A800022F47C5242EA0022E26413BD18B57E486B
:102A90007E4C89B0016841F050010160CA227C4837
:102AA000C2615321C161FF210268D208D2000260D5
:102AB000C1617848026842F40042026000F06AFA9C
:102AC00075480268042161F3020202600020734924
:102AD00000F0B1FB00F039FD0121012000F067FAA0
:102AE000002000F017FE012000F014FE022000F08C
:102AF00011FE012000F030FE0121002000F046FE12
:102B00000121012000F042FE0121022000F03EFEE2
:102B10000FF2E503012221460020FEF761FD00F0DF
:102B20008DFE04F1080000F081FF0FF26102002128
:102B30004FF4807001F01FF8594C5A490FF23502DA
:102B4000009104F23C5002900192684600F0CFFEE2
:102B500004F25471039104F5C96240F23C510492AD
:102B60000691059403A800F0FBFE00F065FE0AB094
:102B700010BD000080B501464B4800F063FFBDE882
:102B8000044000214FF4807001F002B880B500F0DD
:102B900097FD0021012000F00AFA6946424800F042
:102BA00067FF009800F0F5FE01F05AF801BD38B556
:102BB0000446FFF7FDF914F1010F054609D0FFF7B0
:102BC000E6FE241805E03948016821F0040101609F
:102BD00030BFFFF7EDF9401BA042F4D331BD02E056
:102BE00000F0FBB900BF4FF0FF3000F053BF1028DA
:102BF00008BF01F0C9B87047F8B52D4C234E04F555
:102C000080752F88B7F5807F27D230780D2821D1A5
:102C100016A1204601F01EFA04F5827708B925486E
:102C20000DE013A1204601F015FA10B94FF0B05095
:102C300005E010A1204601F00DFA20B91E48686099
:102C4000384601F011FA4FF480712046FFF744FA3C
:102C5000002701E0E0557F1C2F80314601B0BDE820
:102C6000F040164B01220020FEF7BABC535731004A
:102C7000535732005357330010400058500000584B
:102C8000040C0058FECAFECA90080058F015002037
:102C9000082800400800005880040058B0140020A4
:102CA000148003206B3D0008F815002010ED00E0B3
:102CB000601000200400001601000016F92B000827
:102CC000F8B504460025ACB104F13406307910B9EA
:102CD0002046FEF7F9F90F4F384600F021F8386822
:102CE00040F001103860204600F007F835600121FF
:102CF000317100E001252846F2BD10B50021064AD9
:102D0000064B00EB8104491C06296360E261F8D39D
:102D100010BD0000000C0058DF200008AF1F0008A5
:102D2000002101604FF03F1242603F2383607047F3
:102D300038B5040052D094F8210028B9002184F855
:102D400020102046FEF76DFA0220DFF8B81084F854
:102D500021000A68D00645D42268CA215162532056
:102D60002168486200F04BF8FF2510B100F03FF8F1
:102D700034E02168DFF890008A6802408A602268A7
:102D80009368606821690343A0690B430343936020
:102D90002068E168016120680169A26841EA024196
:102DA00001612068C16821F08001C1602068C16CA8
:102DB00089088900C1642268D36CE16960690B43AA
:102DC0000343D36421688868810609D400F015F8AC
:102DD00030B100F00CF8002084F82000012032BD52
:102DE00020684562012184F82110002032BD20684E
:102DF0004562042184F821107047204606E02046F1
:102E00001DE000000C280040BFFF8FFF38B50446CE
:102E10002068C16821F0A001C160FFF7C9F805462C
:102E20002068C168880608D4FFF7C2F8401B40F24A
:102E3000E9318842F4D3032032BD002032BD38B5D9
:102E400004462068C1684A0612D44FF0FF31C160C1
:102E5000FFF7AEF805462068C168480608D4FFF7BA
:102E6000A7F8401B40F2E9318842F4D3032032BD79
:102E7000002032BD10B500F184010A78012A01D189
:102E8000022010BD01220A7024234B6002681368DF
:102E900014686408640014600022426623F0005342
:102EA0000068036020224A6000230B70002010BDE0
:102EB00070B500F01FF801D1022070BD00F020F8BD
:102EC00022F0604209E070B500F014F801D1022050
:102ED00070BD00F015F822F0606211438160204659
:102EE00000F01CF8206806602021696000222A702A
:102EF000002070BD044604F184052878012870473D
:102F00000120287024226A6020680668026852083E
:102F100052000260206882687047000030B5416E40
:102F200011B90121012214E0016800BF0BA48A68D5
:102F3000D1F808100BA3520E02F00702490F655C8E
:102F4000A45C595C9A5CED00E40095FBF1F194FB04
:102F5000F2F268304180028030BD000001010103BF
:102F600007010000080402040801010120B5014620
:102F70000648074D00E00838C2798A4218BFA842C7
:102F8000F9D18A4218BF002020BD00BFF873FF1F8F
:102F90000070FF1F1F48002101604160704710B59D
:102FA00000F00FF81C6800F011F81C6006E010B586
:102FB00000F007F85C6800F009F85C6082F31088A4
:102FC00010BDEFF3108272B6124B704719B1012990
:102FD00002D1044370478443704738B5EFF310843F
:102FE00072B60C490C4D086820B1296888476A6898
:102FF00090470AE0486820B1A8688047E968884798
:1030000003E0286980476969884784F3108831BDE7
:103010000000000010160020BC4A0008DFF8EC1485
:103020000A6892B200E00246086880B28242FAD191
:103030007047F0B5DFF8D834DFF8D8541E7818247C
:1030400002466243B0422A4404D118785870547D35
:103050001C700FE0167D507D92F815C005F1150724
:103060006643062807F806C004D0167D143514FB05
:1030700000F42E55012010731A78062A02BF002989
:103080004FF0FF30D860F0BD10B5DFF88444E06841
:1030900010F1010F0ED0FFF7C1FFE16881422FBF91
:1030A000E268E168E2888A182179101AE2784843D8
:1030B000D04000E0002080B210BD2DE9F84FDFF8CD
:1030C0005884DFF858B4D8F80060DBF800004105F8
:1030D00000F060F9DFF83854DFF838A420F480609D
:1030E000B0604FF018092C780AF1080019FB04F1C0
:1030F0004758FFF7C9FF874202D20027012105E0A8
:1031000029894118B94203D22F890021A97015E0FD
:1031100001223F1AAA7011E00A590AF10803121A93
:103120001A5108E009FB04F40AF108010A59824225
:10313000F2D200230B510AEB04014C7D062CF1D195
:10314000B8B238B9FFF76AFFE8600320BDE8F24F74
:10315000FEF79ABF022802DAE878012800D07F1E25
:1031600000F01EF9DBF80C0067F30F00CBF80C0041
:10317000FFF754FFE860D8F80000816841F48061EF
:103180008160AFF30080BDE8F18F2DE9F843EFF3E4
:10319000108472B6DFF88053DFF878332968CA20CC
:1031A000486253224A628868DFF8642320F4806012
:1031B000886018201678374647431F4497F80CC09C
:1031C000BCF1020F26D1D7F80080D7F81090907884
:1031D000E8B17A7B012A0AD101213046FFF729FFA5
:1031E00084F310887968304600F0EAF804E084F34C
:1031F0001088304600F098F82868CA2141625322AE
:10320000426231464246484600F03CFF0EE0FFF77E
:1032100054FF09E0C8684207FCD500F07EF84FF47F
:103220000020DFF8FC12086084F31088FF22286871
:103230004262BDE8F1832DE9F041DFF8DC4221680C
:10324000CA224A6253234B62B44B1A6842F02002EE
:103250001A601D68AE4A05F00705C5F10405D57072
:103260009E68360C06F07F06761C16719B68C3F3C9
:103270000E035B1CD3805B1E7343A3F5A073EB406E
:103280004FF6FF75AB422CBF15811381A54B1D680E
:1032900045F400251D60A44D2E6846F400262E60DE
:1032A00040BB012090704FF0FF35D5600020994D54
:1032B000002605F10C085FFA80FC182515FB0CFCB4
:1032C000401CC7B208F80C60062FF4DB0620107013
:1032D0008A6822F480628A6000F01FF84FF40021AF
:1032E000D9600320FEF7DBFE2068816841F480414D
:1032F000816005E0C868410544BF0320FEF7C4FEB5
:103300002168FF204862002203210320FEF770FE9F
:10331000BDE8F0410320FEF789BEC86800F08000D8
:1033200060F49060C8607047F8B50746EFF310840A
:1033300072B60320FEF785FE774D7C4A2E68CA20C0
:10334000706253213B46182071624343D15C0229CD
:1033500017D100213846FFF76CFE6D480178062929
:103360000AD16E4801684A0500F014F820F4806024
:10337000B06000F015F804E04078884218BFFFF70D
:103380009CFE2968FF2048620320FEF74FFE84F36D
:103390001088F1BD02D5F0684107FCD4B0687047D1
:1033A000F0684107FCD5F0685D4900F0800060F4EA
:1033B0009060F0604FF4002008600320FEF76FBEBD
:1033C0002DE9F04704461825524E684337188A46BF
:1033D000397B022904BF2046FFF7A6FFEFF31089CF
:1033E00072B60320FEF72DFEDFF82C81D8F800001E
:1033F000CA2141625322426202203873C7F808A0F2
:10340000C7F804A0DFF808A19AF80000062808D140
:1034100000F075F878754FF0FF31CAF80C100020F5
:1034200056E0FFF731FEB9680918B96006F10803E4
:10343000B9689AF800206A439A5891422AD39AF8B8
:10344000002004E006F1150E6A431EF8022006F182
:10345000150315FB02FC13F80C30062B06D006F101
:10346000080C6B435CF803309942EBD21146694378
:1034700006F1150E1EF80130062B05D006F1140CCE
:1034800015FB03F50CF805407B753A7506F115023E
:1034900054541DE09AF800109AF800C0614515FBDD
:1034A00001F20FD006F1140E06F1150C1EF80230D1
:1034B00015FB03F50CF8054079753B7506F1140111
:1034C0008C5403E006F1140379759C5400F017F84E
:1034D0009AF800109AF801208A4202D0FFF7EDFD19
:1034E00002E0B968081AB860FF20D8F800104862F6
:1034F0000320FEF79BFD89F31088BDE8F0879AF85A
:1035000000108AF801108AF800407047282800400F
:1035100000160020A0130020B0140020082800404E
:103520000C0800580008005880080058AC13002010
:103530005A4900E05A4981B00A6802430A600968A2
:1035400008400090009801B07047F0B585B0FFF7D3
:1035500021FAFFF721FA5348534C016841F48031B6
:10356000016068461421FEF7B7FD002500260027FC
:10357000002104EBC102907988B11368B3F1904F38
:103580000BD04A48834205D04948834207D19088EE
:10359000074304E09288164301E090880543491CE4
:1035A0002629E6DB002102910122032101920391E9
:1035B000A8B270B100900120FFF7BAFF0120FFF719
:1035C000B9FF00F077F80022A9B24FF09040FFF762
:1035D000CBF8364DB0B278B100900220FFF7A8FFCB
:1035E0000220FFF7A7FF69462846FEF7F1FF0022F9
:1035F000B1B22846FFF7B8F8B8B280B10090042005
:10360000FFF796FF0420FFF795FF294E69463046E5
:10361000FEF7DEFF0022B9B23046FFF7A5F814210D
:103620006846FEF759FD00210026002204EBC20384
:1036300003F59873987950B11F68B7F1904F04D093
:10364000AF4204D19888064301E09B881943521C7D
:10365000082AEBDD022200200192029003230622B9
:103660000393049288B248B189B200910120FFF718
:103670005FFF0120FFF75EFF00F01CF8B0B258B109
:10368000B6B200960220FFF753FF0220FFF752FF69
:1036900069462846FEF79CFF05B0F0BD4C00005877
:1036A0004C01005890080058844400080004004869
:1036B0000008004869464FF09040FEF789BF0000BF
:1036C00000B587B04FEA0D0005A11C2200F0DCFC1C
:1036D00000F07BF9684600F0F1FC07B000BD000087
:1036E000000000000000000000000000844400080A
:1036F000008003200480032026040400464981B092
:103700000A6802430A60096808400090009801B006
:103710007047000078B585B0044600F078F80220C4
:10372000FFF7ECFF3FA13D4E31F814500095012109
:1037300001910022022102920391694656F8240069
:10374000FEF746FF00F002F806B070BD56F8240000
:1037500000222946FFF708B810B500F00FF8BDE8C1
:1037600010400122FFF700B810B500F007F8BDE8DF
:1037700010400022FEF7F8BF0000000029A3274CEC
:1037800033F8101054F820007047000030B585B0B1
:1037900004460D4600F03BF8200008BF042004D08A
:1037A000012C18BF022C02D10820FFF7A7FF290027
:1037B000DFF86C201DA00ED130F81410009100230A
:1037C0000193012102230291039300F01BF80120D1
:1037D000FFF7EDF914E0012D12D130F8140000903C
:1037E0004FF404130295019300F00CF811A0045D4E
:1037F00000220F2160B2FEF7FBFB60B2FEF716FC61
:1038000005B030BD694652F82400FEF7E1BE14222F
:103810000021684600F061BC4C0000583C100020BC
:1038200048100020200001000200000010000100EC
:10383000020000000A06070000F0CDBC7148724982
:10384000016001F12002426001F13003836001F167
:103850004002026201F14803436201F15002C2607A
:1038600001F15803036101F17402426101F178032F
:1038700083618431C16100F0CCBC38B50446634D2E
:10388000284600F0D3F85F494868A1680160E26803
:103890005F49C2604160856000F0D7FC5D4834E05C
:1038A00080B558484268136801211972406800F0D9
:1038B000D2FC002002BD38B5564C544D04E000F057
:1038C0004BF8009821688847284600F0B2F8002895
:1038D000F5D031BD80B54B494A68D16802200872E5
:1038E00000F0BEFC002002BD4A484168084738B5D8
:1038F0000446494D284600F099F84249C868A16835
:103900000160456000F0B5FC4448216801606268D0
:103910004260002032BD80B53A48C2681368102169
:103920001972C06800F0ABFC002002BD3548C168C8
:10393000C2683A4910680B68184738B5374C364D9D
:1039400004E000F009F8009861688847284600F014
:1039500070F80028F5D031BD6946284600F088B8D7
:1039600038B504462E4D284600F060F82D4800F08A
:103970005DF824480069A1688160E268C260056161
:103980002168016062684260216941616269826107
:1039900031BD80B50146234800F054F8BDE802402F
:1039A0000FF2050000F074BC38B5164C1D4D06E052
:1039B000FFF7D2FF00992069006900F043F828461C
:1039C00000F037F80028F3D031BD10B5164C204672
:1039D00000F02CF80B4948690460BDE8104000F085
:1039E0006BBC1CB5104C06E06946204600F040F860
:1039F000009800F079FC204600F01BF80028F3D076
:103A000013BD000000000320988A0320388B032098
:103A1000888A032020160020408B032028160020CF
:103A2000288B032018160020308B03200060406094
:103A30007047EFF3108172B6026882420CBF01201A
:103A4000002012E0EFF3108272B6086043684B600A
:103A50004160486801601AE0EFF3108172B6426875
:103A60000368136002684368536081F310887047ED
:103A700010B5EFF3108472B602680A600168FFE7C0
:103A80000846FFF7E9FF84F3108810BD0B6082F34E
:103A9000108870472DE9F8435E4C5F4EA5692840B9
:103AA000A0614FF0FF372169E2696069236A4FF036
:103AB00001083CE0491C54F831301A42FAD054F85D
:103AC000312004EBC1091040D9F804100CEA0000C1
:103AD000014208BFC9F80470D9F80410084000F08A
:103AE0009DF8D9F8042008FA00F18A43C9F80420A7
:103AF0006062EFF3108172B608FA00F22069D243D7
:103B000010402061022004EBC003401E53F808CC93
:103B100002EA0C0C43F808CCF5D181F31088606AF6
:103B200056F8201088472169E2696069236AD4F851
:103B300018C0014011EA0C0F05D01A4203D1002130
:103B400000EA0C02B7E7676200F0CFFBEFF31086E4
:103B500072B62269E1696069A36902401A4202BF34
:103B6000206A0142FFF73CF886F3108800F0BEFBA4
:103B7000A561BDE8F18338B51446EFF3108572B640
:103B800000F04CF8244941F8204085F3108831BDFD
:103B900030B5EFF3108272B61E4B1C6904431C61F2
:103BA00053F83150284343F8310082F3108830BD78
:103BB000506181F310887047EFF3108172B6154A97
:103BC000D3691843D061F4E72DE9F041114C666ADE
:103BD0000546374616F1010F0EBF0026012000FAF8
:103BE00006F6D4F82080256203E029463046FEF729
:103BF000F9FFE0692842F8D06762EFF3108072B6EF
:103C0000E16921EA0505E56180F31088C4F82080A8
:103C1000BDE8F0810810002030140020024600208A
:103C2000110C090404BF1020120412F07F4F04BFCE
:103C30000830120212F0704F04BF001D120100BFC5
:103C400003A3120FC0F11F00995C401AC0B2704765
:103C50000403020201010101000000000000000055
:103C600018B597B06C46002000210022002384E89C
:103C70000F0008A8DFF8AC13DFF8AC433C2200F0DB
:103C800003FA2068DFF8A4430FF22D3204924FF6B6
:103C9000FC7101EA8001DFF898034118E16004A893
:103CA000DFF89013069101F5867107910FF221312B
:103CB0000591FFF7E2FD01210220FFF778F90121CC
:103CC0000220FFF76CF90020E070A0700F208DF843
:103CD0000000DFF864030168090CADF80C100068FF
:103CE000C0F30B00ADF80E00684600F0EFF908B124
:103CF000FEF76DFC08A800F0D9F908B1FEF767FCE3
:103D00000FF22D1200210820FFF735FFDFF82C23DA
:103D100000210120FFF72FFF0FF299020021102050
:103D2000FFF729FFC64A00210220FFF724FFC54AFA
:103D300000210420FFF71FFF012060700021A16017
:103D400004F11800FFF772FEFEF707FC04F1100003
:103D500000216060217001220FF2291304F110018B
:103D60000020FDF73DFC18B010BD80B5AF4A91783A
:103D700031B1002393700120BDE80240FFF71CBF62
:103D8000014602F118001BE110B5A84CE07830B9EB
:103D90000120FFF7E9FC0121E170002105E001208D
:103DA000FFF7DAFC0020E0700121BDE8104002209E
:103DB000FFF7F5B838B5EFF310859C4C6078012813
:103DC00035D10022627004F1080104F11800FFF7F8
:103DD0004FFEA068E178A9B9007A0FF2A913022872
:103DE00072B6A06804D1B0F80B20521D92B201E067
:103DF000827AD21C00F108010020FDF7FCFB85F35C
:103E0000108831BD0121E268617011698A689042B1
:103E100005D3C9681144884238BFFFF7BAFD04F1E1
:103E20001800FFF706FE10B9BDE83440CCE031BD04
:103E300010B5854CB4F809004FF66052811A04D0D1
:103E4000491E06D0491E08D00BE0204600F050FA6B
:103E500011E0204600F08AFA0DE0204600F0ABFAAF
:103E600009E0A0810E210120A073E072617221207F
:103E700020720420A07221467448FFF7E3FDBDE8DC
:103E80001040A1E0F8B5694D69682A780024002047
:103E90001AB1022A64D013D358E00978012905D059
:103EA000022907D0102918BF202907D10120287026
:103EB00003244BE001202870042447E0012445E05E
:103EC0000E78E868022E11D0102E02D0202E03D0DA
:103ED0001CE0CC78C0681BE0CC785B4805F1100191
:103EE00000F108070A6840F8082F18E04068CA780F
:103EF0000979C36802EB012403F10807052205F1E3
:103F00001001384600F0C0F8052009E0CC78406880
:103F1000016805F1100001F108070168396004200B
:103F20006F60A1B211B102222A700FE0022E25D0DB
:103F3000102E1DD0202E1ED000210120FFF728FEBC
:103F4000002005F11001287001246960A2B201B0BF
:103F500069683F4BBDE8F04001440020FDF740BBDD
:103F6000087802280AD0102802D0202803D0E3E7DE
:103F700000210220E2E700210820DFE700210420E1
:103F8000DCE7000010B5294CE16801206070096988
:103F9000A0688A68904205D3C9681144884238BF36
:103FA000FFF7F7FC04F11800FFF743FD10B9BDE877
:103FB000104009E010BD000080B50146234800BF55
:103FC000FFF740FDBDE8044000211020FFF7E0BDF1
:103FD000704770B51446144A144E12681D460123EA
:103FE000B3704FF6FC7303EA8203114AD3180A46F2
:103FF000DE683668A6F80900F17206F10C00214669
:1040000000F042F800210020FFF785FC0120FFF7B7
:10401000DBFD314605F10800B278BDE87040D21CE6
:1040200000F032B8044900083C400058D015002088
:104030000000032074880320002004E0A138000859
:1040400017390008D53800086C110020E815002049
:10405000853E000810F8012B11F8013B0AB19A4285
:10406000F8D0D01A7047000000680549C0F300423C
:104070005201012300F01F0003FA00F0885070473E
:1040800008080058104700004AB1000011F8013B31
:10409000521E00F8013B1CBF11F8013BF8E77047C6
:1040A000FFF797FF9DF80E0005B000BDF8B500F1D1
:1040B0000C026B462E214FF66640F1E7F8B500F191
:1040C0000C026B460F214FF66840E9E7F8B502464F
:1040D0006B4610214FF67540E2E710B504461046D6
:1040E0000A460146204600F0C3F9204610BD0000F4
:1040F000C0680840884201D1012070470020704705
:10410000C0690840884201D10120704700207047F3
:1041100010B56C4C02212046FFF7F2FF38B1606801
:10412000C043810703D5FFF708FC022018E00121F6
:104130002046FFF7E5FF38B16068C043C10703D5EB
:10414000FFF7B9FB01200BE008212046FFF7D8FF5D
:1041500038B16068C043010703D5FFF742FC08206F
:10416000A06010BD10B5574C02212046FFF7C0FFDC
:1041700058B96068C043810307D5606840F40030D7
:104180006060BDE81040FFF7D1BB08212046FFF773
:10419000AFFF70B96068C04301030AD560684A493F
:1041A00040F400206060086880474FF40022A2605D
:1041B00010BD20212046FFF79BFF58B96068C0431F
:1041C000810207D5606840F400106060BDE81040CF
:1041D000FFF78ABB10BD3D4881B0016841F48011F2
:1041E0000160006800F48010009000983848016871
:1041F00041F4007101603748026842F400720260C5
:1042000040BF20BF3448016841F40041016001B063
:10421000704780B53148016841F480110160006841
:1042200000F48010009000982648016841F00101D8
:104230000160026842F4803202602C20FDF7F6FE35
:10424000BDE802402D20FDF7F1BE25480168490870
:1042500049000160704723494FF48030086070477F
:104260001F484FF400114160026822F400120260FE
:1042700070471B48016821F002010160704718482F
:104280004FF400314160026822F40032026070474E
:1042900038B504460B4D08212846FFF729FF30B1F9
:1042A00009480460696821F40021696031BDA047B4
:1042B0004FF40020A86031BD0948016821F00801D1
:1042C00001607047000C0058301600205001005863
:1042D00020080058D40800580C040058500000581A
:1042E000040C0058080C00587047704770470000D5
:1042F00070B5EFF31081027B012A02D0022A07D0A9
:104300000DE000F027F81B7800F01FF814700CE0A7
:1043100000F020F81B8800F018F8148005E000F089
:1043200019F81B6800F011F8146081F3108821213E
:104330000E220172427204214FF660528172828114
:10434000002101228173C27270BD23EA040435404A
:104350002C43704772B6D0F81120D0F81130D0F845
:104360000D40D0F81550D0F80D60704781B0017B3A
:10437000012902D0022904D007E0D0F80D100978F5
:1043800006E0D0F80D10098802E0D0F80D10096899
:10439000009121220E21417202724FF661510822D2
:1043A00081818272002101228173C272009940F8DA
:1043B0000F1F01B0704738B50446274800684FF614
:1043C000FC7505EA80052548451921212172422006
:1043D000A0724FF66251A1810120E07200210E22ED
:1043E000A17362721E480168090CA4F80F100068DE
:1043F000C0F30B00A4F811001A4801781A4801F024
:104400001F01E174416821754168090AC4F815105B
:104410000168C4F819100169C4F81D104169C4F895
:1044200021108069C4F8250004F1290029680A6870
:1044300002600C222B68191D04F12D00FFF724FEE9
:1044400029681022103104F13900FFF71DFE0748DA
:104450000168C4F8491031BD3C40005800000320F9
:10446000002004E00075FF1F8075FF1FC84B000887
:104470004018491C1CBFB1F1010100F8012DF9D110
:1044800070470000000000480100000000000048E4
:10449000010000000000004801000000000000488A
:1044A000010000000000004801000000000000487A
:1044B000010000000000004801000000000000486A
:1044C000010000000000004801000000000000485A
:1044D000010000000000004801000000000000484A
:1044E000010000000000004801000000000000483A
:1044F000010000000000004801000000000000482A
:104500000100000000000048010000000000004819
:104510000100000000000048010000000000004809
:1045200001000000000000480100000000000048F9
:1045300001000000000000480100000000000048E9
:1045400001000000000000480100000000000048D9
:1045500001000000000000480100000000000048C9
:1045600001000000000000480100000000000048B9
:1045700001000000000000480100000000000048A9
:104580000100000000000048010000000000004899
:104590000100000000000048010000000000004889
:1045A0000100000000000048010000000000004879
:1045B000010000000004004804000100000400485D
:1045C00080000100000000480001010000000048D8
:1045D0000002010000000048000401000000004843
:1045E0000008010000040048000101000004004828
:1045F00000080100000400480004010048490A685E
:10460000920840EA82000860704700EB8100454A4A
:10461000D0F88010914201D00120704700207047EF
:1046200042F4806240F82120704780B500F0A2F883
:1046300000F056F83C481F2181610321026809E01F
:1046400000F0A0B880B500F095F800F049F83648C1
:104650000268022161F3020202603448016841F0FD
:104660000401016030BF01BD10B5314C00F066F8A7
:1046700000F029F80028FBD14FF0B040816801F02C
:104680000C01042916D1016841F480310160012236
:1046900028490B6862F302030B6001688903FCD5AB
:1046A0000221826861F301028260816801F00C01DD
:1046B0000829FAD1002203212046FFF7B1FFBDE807
:1046C000104000F05FB8032120469EE780B500F05F
:1046D00051F81648016821F00401C2E700F052B811
:1046E00038B5134CFFF7EFFF0028FBD10421FFF78B
:1046F000EBFF104D40B910480168090402D400686E
:10470000400507D500F01AF800F01CF82868C0082A
:10471000C00028602046BDE83840002203217FE722
:1047200008000058000400800004005810ED00E06C
:10473000001400580040005888040058002204214A
:1047400020466DE710B54FF0B044206840F480700B
:10475000206020684105FCD50120FFF74FFF606A0B
:10476000800880006062A06800F00C000428FAD184
:1047700010BD00000248016821F00201016070478D
:1047800010E000E00248016841F00201016070475A
:1047900010E000E001000000030000000500000040
:1047A0000100000001000000060000000A000000F7
:1047B00020000000020000000400000008000000CB
:1047C0001000000040000000800000000001000018
:1047D00000020000A0860100400D0300801A0600C0
:1047E00000350C0040420F0080841E0000093D008F
:1047F00000127A000024F40000366E010048E8013F
:10480000006CDC020000000000000000000000005E
:10481000000000001349002008604FF0B04112482A
:10482000026842F4700202604FF4E022086840F02F
:10483000010008608A600B680C4803400C480B605C
:10484000026822F005020260002243685B085B00F8
:1048500043600848C8600861086820F48020086048
:104860008A61704708ED00E088ED00E0FBFEF6FA93
:1048700094000058001004227047FEE7FEE7FEE7B0
:10488000FEE770477047704700F026B8FEF77DBC22
:104890000848FCF7E9BD0848FBF702BD0748FBF7ED
:1048A000FFBCFFF735BCFFF75DBC00F01DB8044846
:1048B000FCF7DABD101500200C1300207812002040
:1048C000701500201020FDF754BF0120FDF751BFE7
:1048D0000220FDF74EBF00000248416802788A18A6
:1048E00042607047301000200449C8680A6882435B
:1048F0000A60486000F004B800000000001500588D
:1049000070470000000000000000000000000000F0
:1049100000000000000000004400080040050801FD
:1049200012519C00F4010000FFFFFFFF4801011835
:104930000020D8060008CF00000000000C00000096
:1049400030B4002512E050F8042BD30744BF4A448A
:10495000521E091F042942F8045BFAD213468C0741
:1049600044BF15809B1CC90748BF1D7050F8041B2D
:104970000029E8D130BC704710B500F013F80200F0
:1049800000230024E4431068A04203D01100022059
:10499000ABBE13605068A04203D0111D0220ABBE15
:1049A000536010BD004870475410002010B50749EF
:1049B00079441831064C7C44163404E00A68081D1A
:1049C000114488470146A142F8D110BD2C000000D7
:1049D000680000004EF68851CEF20001086840F4ED
:1049E00070000860BFF34F8FBFF36F8F4FF00170FF
:1049F000E1EE100A7047000049FFFFFFDC050000F0
:104A000060100020840A00001480032000000000D1
:104A1000A7CBFFFF14000000BC00000000800320B3
:104A20000000000093CBFFFF58000000A001000031
:104A3000081000200000000000000000000000003E
:104A40000000000000000000010000000200000063
:104A5000030000000400000000F00DF8002801D061
:104A6000FFF7A4FFAFF300800020AFF30080FDF755
:104A7000D6FC00F002F80120704700F001B80000F9
:104A80000746384600F002F8FBE7000080B5FFF764
:104A900073FF024A11001820ABBEFBE7260002009C
:104AA0000548014603B4684680F30988AFF30080E7
:104AB000FFF790FFFFF7D0FFA5EDF5FECD4600080C
:104AC000DD46000845460008694600082B460008F8
:104AD0004146000800000000070000000000000040
:104AE0000000000000000000014880470148004726
:104AF00015480008A14A0008FFF7FEBFFFF7FEBFF8
:104B0000FFF7FEBFFFF7FEBFFFF7FEBFFFF7FEBFD9
:104B1000FFF7FEBFFFF7FEBFFFF7FEBFFFF7FEBFC9
:104B2000FFF7FEBFFFF7FEBFFFF7FEBFFFF7FEBFB9
:104B3000FFF7FEBFFFF7FEBFFFF7FEBFFFF7FEBFA9
:104B4000FFF7FEBFFFF7FEBFFFF7FEBFFFF7FEBF99
:104B5000FFF7FEBFFFF7FEBFFFF7FEBFFFF7FEBF89
:104B6000FFF7FEBFFFF7FEBFFFF7FEBFFFF7FEBF79
:104B7000FFF7FEBFFFF7FEBFFFF7FEBFFFF7FEBF69
:104B8000FFF7FEBFFFF7FEBFFFF7FEBFFFF7FEBF59
:104B9000FFF7FEBFFFF7FEBFFFF7FEBFFFF7FEBF49
:104BA000FFF7FEBFFFF7FEBFFFF7FEBFFFF7FEBF39
:104BB000FFF7FEBFFFF7FEBFFFF7FEBFFFF7FEBF29
:104BC000FFF7FEBFFFF7FEBF00010000000000007E
:104BD00000000000000000000000000000000000D5
:104BE000FFFFFFFFFFFFFFFF0000000000000000CD
:104BF00000000000010000000000000010000000A4
:104C00000004004800040048000400480008004870
:104C1000000C0048000C0048FFFFFFFFFFFFFFFFF4
:044C200000093D004A
:0400000508004AA104
:00000001FF
