:020000040800F2
:100000000810002085840008398200083B8200081F
:100010003D8200083F820008418200080000000085
:100020000000000000000000000000004382000803
:10003000458200080000000047820008498200084D
:1000400095840008998400089D8400088382000834
:10005000A1840008A5840008A9840008AD840008D4
:10006000B1840008B5840008B9840008BD84000884
:10007000C1840008C5840008C9840008CD84000834
:10008000D1840008D5840008D9840008DD840008E4
:10009000E1840008E5840008E9840008ED84000894
:1000A000F1840008F584000887820008F9840008BC
:1000B000FD84000801850008058500080985000801
:1000C0000D850008118500081585000819850008B0
:1000D0004D8200081D85000821850008258500083F
:1000E0006D820008298500082D85000831850008EB
:1000F000658200086982000853820008358500087F
:10010000398500083D8500084185000845850008BF
:10011000498500084D85000851850008558500086F
:10012000598500085D850008578200086185000830
:1001300065850008698500086D8500082DE9F14F87
:10014000B2B09A46914600230691CDE900333C9A1D
:100150000F930DF14A0114914A7011E0329E4F46FF
:100160002C4617F8011B0698B0470028069000F0AF
:1001700026810F98401C641E0F90F2D13296A9443C
:1001800099F80000252808D10021002209910A923F
:100190000B910C920D910E920FE06A464FF0FF31D9
:1001A000484601F021F8050002D10F9800F00CBE7E
:1001B000D4D50125E3E741F0010119F8010F20280A
:1001C000F9D023280CD02B2804D02D2805D0302896
:1001D00009D00BE041F00201EFE741F00401ECE748
:1001E00041F00801E9E741F01001E6E72A280FD1C4
:1001F000DAF8002052F8040BCAF800200028119009
:1002000003D54042119041F0040109F1010914E0C5
:100210001192DFF8503B0AE01198984205DA00EBA2
:10022000800402EB4402303A119209F1010999F875
:100230000020A2F130000A28EED399F800002E2801
:1002400003D04FF0FF32109229E019F8010F2A284D
:1002500009D1DAF8000050F8042BCAF80000109217
:1002600009F101091BE02D280CBF09F1010900204B
:1002700000221092DFF8EC2A0BE040B9109B934269
:1002800005DA03EB830504EB4504303C109409F1D7
:10029000010999F80040A4F130030A2BEDD3ADF821
:1002A00048100FF6C42099F8001000F0A7FF08B11D
:1002B00019F8010B8DF84A009DF84A00682805D10D
:1002C00099F8000068280CD1622106E06C2804BF70
:1002D00099F800006C2804D171218DF84A1009F1B9
:1002E00001091FA8089019F801BBBBF125012DD009
:1002F0001C3900F06281091F022940F25E810E392B
:100300002AD0491F00F06584093900F05681891E02
:1003100000F0FB84491E00F0A784491E022940F228
:100320004C81091F00F0A084491F00F0BB80491ECA
:1003300000F04F84491E65D0C91E21D0891E00F0EF
:100340004884C91E00F0458400F0FEBC25238DF8CA
:100350007C30012109912AE06C208DF84A00DAF8FE
:10036000000050F8042BCAF80000002A43D1149969
:10037000487800283DD04FF0FF340FF6F41012E01B
:100380009DF84A006C28EAD0DAF8000050F8044BD7
:10039000CAF800000794D4B91499487898B14FF07E
:1003A000FF340FF6E81000F043FF201A07D132980F
:1003B0001FAA04A900F00BFD00287FF5E1AE4FF065
:1003C000FF3000F001BD0FF6E0100790EFE7109D41
:1003D000002D04D5204600F04BFF044607E02A46D6
:1003E000204600F065FF002814BF041B2C460A9429
:1003F000DDE70FF6B812329804A900F06EFD002870
:10040000D5D5DCE7DAF8001051F8040BCAF8001073
:1004100020F00004002121F0FF351FABCDE9044599
:100420000793DDE9042308993C2413B90AB910980D
:10043000A0B102F00F05641E30353A2D08DA12091A
:100440000D5542EA03721B0908BF002A02D105E0DC
:100450002735F4E707980D19A842EAD30819079041
:10046000C4F13C0210980A92824209DABDF84810A1
:10047000821A4FF6EF7001400C92ADF8481096E7E3
:10048000002894D59DF8480000F0140010288ED163
:10049000119B09990C985B1A1B1A9A1A002A86DD7F
:1004A0000C9284E71499487820B14FF0FF340FF68E
:1004B000001078E79DF84A00622862D0682819D0B9
:1004C0006A2840D06C2806D071284DD074282DD0D1
:1004D0007A281ED064E0DAF8001051F8040BCAF84C
:1004E000001020B94FF0FF340FF640405BE70F9942
:1004F00001605CE7DAF8001051F8040BCAF800104C
:1005000020B94FF0FF340FF624404CE70F990180DB
:100510004DE7DAF8001051F8040BCAF80010002873
:10052000E5D14FF0FF340FF604403CE7DAF8001055
:1005300051F8040BCAF800100028D8D14FF0FF344E
:100540000FF6E8302FE7DAF8001051F8040BCAF87C
:10055000001020B94FF0FF340FF6D03023E70F9A88
:10056000D317C0E9002322E7DAF8001051F8040B92
:10057000CAF800100028F2D14FF0FF340FF6AC306B
:1005800011E7DAF8001051F8040BCAF8001020B98E
:100590004FF0FF340FF6943005E70F99017006E72E
:1005A000DAF8001051F8040BCAF8001000289ED1A8
:1005B0004FF0FF340FF67430F5E6DAF80020D21D64
:1005C00022F00702CAF80020D2E900010832CAF876
:1005D0000020CDE90401C80F02D009982D210AE0BE
:1005E000BDF84800810702D509982B2103E0C00718
:1005F00005D5099820211FAA1154401C09901FA855
:100600000999DDE9044543184BF020006128079360
:1006100015AE0BD01098002802D50620109005E0EA
:1006200001BF4BF02000672801211091DDE9040192
:1006300048004015401C0A4611D109030FD0ABF108
:10064000610703201A2F0A9002D20FF6F82101E069
:100650000FF6F4210322184600F056FEA7E650B923
:10066000120308D1ABF1610703201A2F0A9018D3A7
:100670000FF6DC21EEE7DDE9040102AA00F050FEEE
:10068000CDE904014BF02000612811D107983021F9
:100690000170821C0792BBF1610F0CBF78215821B9
:1006A00002E00FF6A821D5E741700998801C099057
:1006B000DDE9040120F0000231F0004308BF002A08
:1006C00002D10025002446E14BF02008B8F1610F6B
:1006D00040F095801098002847BF21210391401CCD
:1006E0000390039F7F1C2046294600220023DDE95A
:1006F000044500F04DFE38BF85F0004502998DF8A5
:100700005420091F002F02910DF1550034DD0646DB
:10071000204629460022002300F054FE2BD21C2242
:1007200000F06AFE04460D4600F004FFFF1F002F94
:10073000804609DD00F01AFF02460B462046294696
:1007400000F0DCFF04460D46F01D0721B8F1000F54
:100750000CDD491E5EBF08F00F0200F8012D4FEAC4
:100760002818F3D502E0002200F8012D491EFAD521
:10077000C61D002FCCDC30460DF15501401A0399FF
:100780000DF1550605468842C8BF0D46002D2FD4F1
:10079000854206DA0DF15500415D0829A8BF0F20FA
:1007A00000DA0020294615AA0A4400E06D1E12F85E
:1007B0000139491E8342F9D00F2804D10DF15500AB
:1007C000425C521C4254002904D50298001D15AE0B
:1007D0006D1C0290681E0BD431180A783032D3B2E7
:1007E0003A2BA4BF5A443A3A401E01F80129F4D5E5
:1007F0001098002840F1AE80691E1091AAE002997D
:10080000DFF8E82847F29750414391FBF2F2029259
:1008100025F00045C2F10702002A04DD20462946E2
:1008200000F041FC0BE052420020DFF8C41800F059
:100830003AFC02460B462046294600F0D1FF04460A
:100840000D46B8F1660F06BF029F0A3706271098BB
:100850003F18142FC8BF142730208DF854000020F3
:10086000DFF89018CDE92E010DF15506002F33DD8C
:100870002046294601F0D8F801460A4606F1080349
:1008800004200A26B2FBF6F606EB860EA2EB4E0219
:10089000303203F8012C0A22B6FBF2F202EB820E90
:1008A000A6EB4E063036401E03F8026DE9D1083F34
:1008B000002F03F10806D9DD084601F0C7F802460B
:1008C0000B462046294600F019FFDDE92E2301F0F2
:1008D000CBF804460D46CBE70DF15500301A0DF16B
:1008E000550604E00299491E401E0291761C31789B
:1008F0003029F7D0B8F1660F02D10299491C04E003
:10090000B8F1650F0CBF01210021109D4D19A842BF
:10091000B8BF451E002D1DD4854204DA705D342811
:10092000C8BF392000DC30202946721E531800E071
:100930006D1E13F80149491E8442F9D0392802D1AD
:10094000705C401C7054002904D50298401C164667
:100950006D1C0290029C00F04BFC406A0778DDF8A9
:10096000408028B2002802DC01250FF2E8764BF027
:100970002000662808BF641C16D0672846D120B224
:1009800010F1040F48DB404546DA9DF84800641C2E
:10099000010703D428B24045D8BF804620B2B8EB47
:1009A000000848BF4FF000080FFA84FB07980A9927
:1009B000BBF1000F00F3B3804A1C0A92302343546A
:1009C000B8F1000F03DC9DF84800010704D50A9830
:1009D000411C0A9107990F5418EB0B0FB8BFC8F1CF
:1009E000000424B26042A0442AB20D909045B8BFE2
:1009F0004546079B0A982DB20B952A463146184466
:100A000000F082FCA8EB05000E90CCE0BBF1610F7A
:100A100017D14FF0700B19E028B2404504DA9DF869
:100A200048100A0758BF8046B8F1010848BF4FF088
:100A30000008BBF1670F14BF4FF0450B4FF0650B7B
:100A400004E0BBF1410F08BF4FF0500B0A98411C66
:100A50000A91B8F1000F079916F8012B0A5403DC2C
:100A60009DF8480001071AD50A98411C0A91B8F16F
:100A7000000F07990F5412DD6D1E28B28045B8BFD4
:100A8000454607980A9B2AB23146184400F03CFCC0
:100A90000A992DB269180A91A8EB05000D900798E4
:100AA0000A99084421B2002980F800B003D42B220F
:100AB0004270821C04E02D2242700C46821C64426B
:100AC00000212EAB20460AE004460A2094FBF0F0F9
:100AD00000EB8005A4EB450403F8014B491C00B270
:100AE0000028F1DC012906DC4BF02000652804BF5A
:100AF000302002F8010B00292EAB08D1302002F87B
:100B0000010B06E0491E585C303002F8010B002949
:100B1000F8DC07990A980844121A0B9243E008443B
:100B200029B222B2914219DA2AB2314600F0ECFB26
:100B30000A992DB269180A91ABEB0500B8F1000FC4
:100B40000D9003DC9DF84800020704D50798475430
:100B50000B99491C0B91CDF8388024E0314600F008
:100B6000D3FB0A982D1B5844B8F1000F0A9003DC00
:100B70009DF848100A0703D5411C0A9107990F54A4
:100B800028B28045B8BF454607980A9B2AB206EBB3
:100B90000B01184400F0B8FB0A982DB228180A90EF
:100BA000A8EB05000D909DF8480000F014001028F7
:100BB0007FF4FDAB099A0A990D988A180B9982184F
:100BC0000E988A18821811988242BFF6F0AB821AEA
:100BD00066E49DF84A00622808D068280ED06A288A
:100BE00014D06C281FD0712810D01CE0DAF8001047
:100BF00051F8040BCAF80010C0B21AE0DAF800107D
:100C000051F8040BCAF8001080B212E0DAF80020A4
:100C1000D21D22F00702CAF80020D2E900010832F2
:100C2000CAF8002006E0DAF8001051F8040BCAF800
:100C300000100021CDE904019DF8480001075AD5B4
:100C4000DDE90423002B08BF002A54D04BF020001C
:100C5000782850D109981FA930220A54401C431CFF
:100C6000099301F800B046E09DF84A00622808D0D8
:100C700068280ED06A2814D06C281FD0712810D094
:100C80001CE0DAF8001051F8040BCAF8001040B26A
:100C90001AE0DAF8001051F8040BCAF8001000B29C
:100CA00012E0DAF80020D21D22F00702CAF8002074
:100CB000D2E900010832CAF8002006E0DAF8001094
:100CC00051F8040BCAF80010C117CDE9040100293E
:100CD00002D509982D210AE0BDF84800810702D508
:100CE00009982B2103E0C00705D5099820211FAAE8
:100CF0001154401C09901FA809990144079104A8A8
:100D0000594600F04AF9FFF752BB9DF84A006C289B
:100D10000BD001210991DAF8000050F8041BCAF841
:100D200000008DF87C10FFF742BBDAF8000050F8A5
:100D3000041BCAF8000002914FF0FF32109200210C
:100D4000039102AAFFF757BB25210122BBF1000F37
:100D50008DF87C1009923FF42AAB8DF87DB002210A
:100D6000FFF7F8BACBCCCC0C686A6C747A4C0000F4
:100D70007072696E74665F733A2062616420256CDC
:100D80007320617267756D656E7400007072696EB4
:100D900074665F733A206261642025732061726714
:100DA000756D656E7400000000000000000000001A
:100DB0007072696E74665F733A20256E2064697381
:100DC000616C6C6F7765640033B0BDE8F08F2DE91E
:100DD000FC410F46064690467A6B7869396ABC6AD0
:100DE000121AB869521A796A121AF869521A121A42
:100DF00097F83800141B41070FD42020002C8DF8E1
:100E000000000ADD254601236A463946304600F0D7
:100E100075F900285DD16D1EF5D17B6942463946D2
:100E2000304600F06BF9002853D130208DF80000D7
:100E30003D6A002D09DD01236A463946304600F03F
:100E40005DF9002845D16D1EF5D1BB69FA683946B8
:100E5000304600F053F900283BD130208DF80000D7
:100E60007D6A002D08DD01236A463946304600F0D0
:100E700045F970BB6D1EF6D1F868B969FB69421877
:100E80003946304600F03AF918BB30208DF80000A2
:100E9000BD6A002D08DD01236A463946304600F060
:100EA0002DF9B0B96D1EF6D197F8380041070DD570
:100EB0002020002C8DF8000008DD01236A46394609
:100EC000304600F01BF920B9641EF6D10020BDE8C1
:100ED000F6814FF0FF30BDE8F6812DE9F8470D4669
:100EE000A3B02F6B82469046002F48BF6FF000479B
:100EF00000F08FFE696B401801AA0021C2E90011C1
:100F0000812828BF4FF0FF3044D289461EE0A74217
:100F100030DB6869201881280BD30021696303AA9C
:100F200029465046FFF753FF5FEA000922D400200C
:100F3000686103AB6E6922466946981900F0E4F9CE
:100F4000A6196E6158F8040BA0B13F1B002F11DDEC
:100F5000D8F8001001AA684600F048F90446002CB1
:100F600005D4D8F800000028D1D1641ECFD54FF0A9
:100F7000FF390EE0B9F1000F504604D103AA29460B
:100F8000FFF725FF8146B9F1000F02D1002068610B
:100F90006863484624B0BDE8F0872DE9FC43044669
:100FA0006F29256908BF082605D041F02000782860
:100FB00014BF0A261026D4E900233C279046994600
:100FC000642918BF692905D1002B03D5D8F1000881
:100FD00069EB4909B9F1000F08BFB8F1000F0CD156
:100FE000206B50B9082E3AD194F83800010736D555
:100FF00030203B2785F83B0031E08DF8001040465B
:1010000049463246F31700F009FE3032D0B27F1E57
:101010003A2801970EDAEA55404649463246F31718
:1010200000F0FCFD80465FEA010908BFB8F1000F3F
:1010300005D108E09DF800001218513AEBE7E0688E
:10104000E9198842DBD3082E09D194F8380001074A
:1010500005D5E85D302802D07F1E3020E855C7F165
:101060003C02A261E919E160206B824208DA821A2F
:1010700022624FF6EF70218F01402187BDE8F38394
:1010800000280ED594F8380000F01400102808D17C
:10109000636B6169206A5B1A1B1A9A1A002AC8BF1F
:1010A0002262BDE8F3832DE9D04306460F4614467D
:1010B0004FF00008DFF8409012E0E00707D5424605
:1010C0004B463046394600F0CFFC06460F464046B8
:1010D000494642464B4600F0C7FC641080468946AC
:1010E000002CEAD130463946BDE8D083A086010005
:1010F0000000F03F84D7974100002440F8B5054632
:101100000E4617461C4600205CB117F8011BB0685C
:10111000A847B06030B1F06A401CF0620020641E45
:10112000F3D1F2BD4FF0FF30F2BD00007072696E76
:1011300074663A2062616420256E20617267756D65
:10114000656E74006E616E004E414E00696E660001
:10115000494E460030000EE0026843680244083001
:101160005FEAC37C44BF4B445B1E52F804CB43F898
:1011700004CB091FF9D150F8041B0029ECD17047AA
:101180001C48704770B45368D41801E05B1C491EBA
:10119000042B08DA00291FBF057804F8015B10F85A
:1011A000016B002EF2D1536070BC704738B5144605
:1011B0001D4661B1FFF7E6FF61686A6B2046904704
:1011C0006FF00102811A02D0491E01D001E003E054
:1011D00005E00021616032BD6FF0010032BD4FF0CB
:1011E000FF3032BDDA6B1047024BDFE7014BF9E706
:1011F0000148704770100020B8100020C9B2027872
:101200008A421AB11CBF10F8012FF9E718BF00205D
:101210007047B1F5807F02D34FF0FF307047017007
:10122000012070470078401E8041C043C00F7047C6
:1012300080B500B906A005490B681BB12222002128
:10124000984701E000F06DFD222002BDA81B0020A0
:10125000636F6E73747261696E742068616E646C22
:1012600065723A20626164206D6573736167650021
:1012700000F10103810704D010F8011B820781B13E
:10128000FAD10268A2F10131914311F0803104BF1B
:1012900050F8042FF6E709BAB1FA81F100EBD1005A
:1012A000401CC01A70470268531C036011707047DD
:1012B000C9B2830706D0521E22D310F8013B9942CF
:1012C000F7D11FE0083A13D302F1040241EA0121E9
:1012D00041EA014150F8043B121F21BF4B40A3F1EA
:1012E000013C2CEA030C1CF0803FF3D0C9B2001F74
:1012F000083210F8013B521E28BF91EA030FF8D8BC
:1013000018BF0120401E70474AB1000011F8013B90
:10131000521E00F8013B1CBF11F8013BF8E7704773
:1013200010B5144600F002F8226010BDC1F30A5354
:1013300043B14A0012F5001F28D2A3F2FE32A1EBFE
:101340000251704750EA410C20D001F0004C31EAC4
:101350000C01B1FA81F204BFB0FA80F3D2180B3A53
:10136000B2F120032CBF00FA03F1914041EA0C01D5
:101370003EBFC2F1200C20FA0CF3194390405242B8
:1013800040F2FD33D21A01EB03517047002270473F
:1013900041EA030C50EA4C0C52EA0C0C4FF4001CCE
:1013A00009D307D01CEB410F9CBF1CEB430F8B42B2
:1013B00008BF824270471CEB430FFBD8994208BF1D
:1013C0009042704741EA030C50EA4C0C52EA0C0C74
:1013D0004FF4001C09D307D01CEB410F9CBF1CEB42
:1013E000430F994208BF904270471CEB410FFBD856
:1013F0008B4208BF82427047124254D440F2FF7CB5
:101400001CEA11530FD0634531D09B1863453CBF94
:1014100001EB0251704701F0004141EA0C510020FC
:10142000AFF30080704750EA410320D001F0004C38
:1014300091EA0C011CD0B1FA81F30B3B9A420DD911
:10144000D21A994051EA0C01C3F1200C20FA0CFC8D
:1014500061449840531C40F2FF7CD7E7914041EA39
:101460000C01C2F1200C20FA0CF319439040704794
:10147000B0FA80F31533202BE0D3202AEED3203AA4
:10148000203B9A4209D9D21A00FA03F141EA0C0131
:101490000020531C40F2FF7CB8E700FA02F141EA59
:1014A0000C0100207047524240F2FF7C1CEA1153AD
:1014B0000DD06345DBD0B2EB030C3CBFA1EB025176
:1014C00070470CF1010221EA035141F4801150EA06
:1014D000410CCCD001F0004C352A27DC30B481EA35
:1014E0000C01B2F1200309DAC2F12003044601FA2B
:1014F00003F5D0402843D1409C400CE0C3F12002CA
:10150000450020FA03F418BF44F0010421FA03F067
:1015100091400C43002174F1004550F1000051EB63
:101520000C01244230BC7FF47BAF70476146002041
:1015300076E72E00C1F30A5340F21E42D31A0CDDA7
:10154000CA0283F3070342EA505242F00042DA40F3
:1015500002EBE17282EAE17070476FEAE17203F236
:10156000E13008B182F000407047430010F00041C4
:1015700060B148BF4042B0FA80F29040D21CC2F540
:10158000846241EA025202EBD02140057047704765
:10159000841A71EB030604D26E40001BB14112198C
:1015A00073414FF4001C1CEB410F34BF7CEB43062E
:1015B00083E00C0DA4EB1356362E00F37C80012E35
:1015C00045EAC32341DC43EA525312BFD2029202DE
:1015D0005B08240545EAC12141EA5051D2EBC02005
:1015E000994125D407D1B0FA80F610FA06F162D0FD
:1015F0000020203608E0B1FA81F6B140C6F12002A1
:1016000020FA02F21143B0404FEAF474B4EB4654AE
:1016100034F001064FEA74040AD8D6F50016760DA8
:1016200004F00044F04061FA06F25040F1404840B6
:10163000C00A40EA415021F0004128BF5FEA50054E
:1016400050F1000044EBD12135E0DB0A45EAC1212D
:10165000C90AB6F120050EDD42EA0242120CC5F1BC
:10166000200603FA06F6EB4042EA06056D42984171
:1016700061F100010DE062FA06F5F240554063FAAF
:1016800006FC82EA0C02F3405A406D42904161EB45
:10169000030111F4801F05D1641E620502D06D00A4
:1016A0004041494121F48011430875F1004350F154
:1016B000000041EB045170BC70471CEB410F15D288
:1016C00023F0004352EA43060BD04FEA4C0CBCEB2C
:1016D000410F04D80C0D661E342EB7DDEBE7801ADF
:1016E000994150EA410608BF0021E4E708BF1CEB1E
:1016F000430F28BF6FF00001DDE7000070B491EAEE
:10170000030F4FF000457FF543AF6B40841A71EB38
:10171000030603D2001BB141121973414FF4001CA0
:101720001CEB410F34BF7CEB430442E00C0DA4EBF7
:101730001356352E4FDC45EAC323DB0A45EAC121A7
:10174000C912B6F120050DDD63FA05F6EB4086EA15
:101750000305124218BF45F00105C01851F1000100
:101760000CD213E062FA06F5F2405540F3415A40BC
:10177000B340F3405A408018594107D349085FEA03
:1017800030005FEA350528BF45F0010501F58011FD
:10179000420875F1004250F1000041EB04514E0047
:1017A00016F5001F70BC38BF70470020090D0905F1
:1017B00070471CEB410F10D252EA43060BD0BCEB32
:1017C000410F05D80C0DAB43661E342EB6DD02E08A
:1017D000AB438018594170BC704770BC704770476C
:1017E000F0B540F2FF7581EA030C0CF0004C15EAED
:1017F00011541DBF15EA1357AC42AF42E5E0BC419E
:10180000C1F31301C3F31303801A994143F4801306
:1018100004D2641E0018494180185941C90241EAA6
:101820005051B1FBF3F603FB1611A2FB0675D7EB83
:10183000C020A94102D2761E80185941C90241EA4E
:101840005051B1FBF3FE03FB1E11A2FB0E75D7EB4B
:10185000C020A94103D2AEF1010E8018594189027E
:1018600041EA9051760546EA8E2EB1FBF3F603FB72
:101870001611A2FB0675D7EB8020A94102D2761E75
:1018800080185941C90241EA50514EEA060EB1FB97
:10189000F3F603FB1611A2FB0675D7EBC020A94196
:1018A00002D2761E80185941C90241EA5051B1FB5B
:1018B000F3F703FB1711A2FB0735D3EBC020A941B7
:1018C00067F100070CBF004247F0010766F3D52718
:1018D0004FEA1E31B80814F5806412DDBD0775F1BA
:1018E000004250EB0E5051EB045111F5801F5CBFCC
:1018F00041EA0C01F0BD4CF07F6141F0E041002075
:10190000F0BDBD076D0840EA0E5041F48011D4F1DE
:101910000104B4F120060ADAC4F120060200E04016
:1019200001FA06F3E1401843B24015430EE0342CAF
:1019300013DCC6F1200445EA40056D0820FA06F2E2
:10194000154321FA06F0A1400D43002175F1004234
:1019500050F1000051EB0C01F0BD00205FEA0C01DA
:10196000F0BDCFB992185B41B3FA83F704BFB2FA66
:1019700082F6BF190B3FB7F120062FBF02FA06F31C
:10198000BB40C7F1200622FA06F638BF3343BA40FF
:101990001CB1E419641E33E77F4231F00041B1FA13
:1019A00081F404BFB0FA80F6A4190B3CB4F1200610
:1019B0002FBF00FA06F1A140C4F1200620FA06F676
:1019C00038BF3143A0403C1B1AE7AC421ABF05EABE
:1019D0001357AF4212E050EA41061CBF52EA4306D9
:1019E000BFE750EA4107304661461CBF41EA055156
:1019F000F0BD52EA430C08BFC143F0BD00204FF4D4
:101A0000001616EB410F98BF16EB430F08BF16EBFD
:101A1000410F24BFC14305E016EB430F0CBF6146E5
:101A20004CEA0551F0BD0000400D40F21E4C40EA6A
:101A3000C120BCEB115C40F0004003D48CF30701E3
:101A4000C84070476FEAE1707047000050B1B0FACB
:101A500080F18840C91CC1F58461090501EBD021E2
:101A6000400570470146704730B540F2FF7C1CEAE4
:101A700011541DBF1CEA1355644565453FE06419C8
:101A800081EA030C6FF35F530CF0004C43F48013B6
:101A9000C90241F0004141EA505EC5021100A5FBB8
:101AA000020200284FF00000EEFB01204FF0000181
:101AB000E3FB052118BF42F0010240180021494113
:101AC000E3FB0E01A4F580640D0302D2921840419D
:101AD000494154F1010470DD450872F1004250F1B2
:101AE000000051EB0451A1F5801102D441EA0C0130
:101AF00030BD40F2FF7E4CEA0E51002030BD0CEAB2
:101B00001355644518BF654581EA030C0CF0004C81
:101B100041D050EA410E1CBF52EA430E02E061463A
:101B2000002030BD24422C441BD15FEA050EF6D0C4
:101B3000090302BF01460020AEF1140EB1FA81F58F
:101B4000AEEB050401FA05FE0C35C5F1200100FAE3
:101B500005F5C8404EEA000E6FF35F5343F480135F
:101B60009CE733F00043B3FA83F504BFB2FA82FE78
:101B700075440B3D641BB5F1200E2FBF02FA0EF326
:101B8000AB40C5F1200E22FA0EFE38BF43EA0E0329
:101B9000AA40641C7CE750EA410E14BF52EA430E8F
:101BA0006FF000014FF4001515EB430F8EBF19467F
:101BB00015EB410F9DE7B4D830BDD4F10104B4F169
:101BC00020050FDAC4F12005520828BF42F00102B7
:101BD00010FA05FE01FA05F57244E2BFE040284321
:101BE000E1400FE0352C9ADCC5F1200452EA4002B6
:101BF00020FA05F218BF42F0010231FA05F0A140C7
:101C00000A43002172F1004250F1000051EB0C0137
:101C100030BD80B5FFF7B4FA006C02BDD3BBD9B1BB
:101C2000B2F5803F5BD2022A1ED98C46B1FBF2F19D
:101C300002FB11C31B0443EA1043B3FBF2FC02FB9B
:101C40001C3380B240EA0343B3FBF2F002FB1032D4
:101C500040EA0C4000237047022A05D98446B0FBB5
:101C6000F2F002FB10C270474AB105D100F0010248
:101C700049085FEA3000704700220023704700F0F7
:101C800053B80B000200002100207047F7D3002258
:101C900000237047904271EB030CF2D370B5B1FA98
:101CA00081F4B3FA83F52C1BA340C4F1200532FA6A
:101CB00005F63343A2405FF00046E64002E05B08D1
:101CC0005FEA3202841A71EB030524BF20462946DD
:101CD0007641F4D302000B003000002170BD70B5D6
:101CE000B1FA81F4B2FA82F5C4F120046419B4F1B6
:101CF0002006DAD3B2405FF00044F440002502E051
:101D000052085FEA3303C61A71EB020E24BF304655
:101D1000714664416D41F3D302000B00200029009D
:101D200070BD012000F002B87047000080B500F0DF
:101D300007F8024A11001820ABBEFBE7260002009C
:101D400010B500F013F8020000230024E4431068EB
:101D5000A04203D011000220ABBE13605068A04225
:101D600003D0111D0220ABBE536010BD0048704768
:101D70005411002038B5040009D004F184056968C5
:101D800009B900F01EF800F021F8012801D1012066
:101D900032BDA06A08B100F02AF800F00AF821F07C
:101DA0002A01FFE7816000F01BF8BDE8324000F037
:101DB0008EBB2068416821F49041416020688168B1
:101DC000704700202870204600F0D4BF24216960AD
:101DD00020680268520852000260204600F00EBAE5
:101DE0002068016841F001010160204670472046EB
:101DF00000F00ABB284600F0BEBB10B5034603F155
:101E00005404606B20283CD109B1100001D101209D
:101E100010BD196522806280002060620021E163AC
:101E20002120606321699868B1F1005F15D1B0F598
:101E3000805F04BF1869002819BFDFF8AC03606237
:101E4000DFF8A813616200F05EFC41F4000144E891
:101E500000100028F7D1002010BDB0F5805F04BF4E
:101E60001869002807BFDFF888136162DFF8840370
:101E7000606200F043FC41F0800100F08DF9F8D180
:101E8000E9E7022010BD38B50346D3F88C002028BE
:101E90000AD109B1100001D1012032BD00F006F8CD
:101EA000BDE8384000F0ABBB022032BD0020D86650
:101EB000DFF844431868A0420CD04068040209D5FA
:101EC000186850E8004F054644F0806445E800403B
:101ED0000028F5D1184670472DE9F041054640F637
:101EE0000F0C2A68D369104613EA0C0F076896682E
:101EF00005F15C0407F0200003F020010DD100295A
:101F000014D010B9F00040F18C80A169002900F0D4
:101F10003B812846BDE8F0410847DFF854C816EA7F
:101F20000C0F04BFDFF84CE817EA0E0F79D05FEA18
:101F3000C37E48BF5FEAC75807D54FF0010EC2F80D
:101F400020E0626B42F0010262639A070AD5F20751
:101F500008D5D5F800800222C8F82020626B42F034
:101F6000040262635A070AD5F20708D5D5F8008043
:101F70000422C8F82020626B42F0020262631A0752
:101F80000DD5002808BF16EA0C0F08D0D5F800C000
:101F90000822CCF82020626B42F0080262631A0526
:101FA00009D57B0107D52F684FF400623A62626B56
:101FB00042F020026263626B002A31D031B108B96D
:101FC000F00003D5A16909B128468847606B2968EC
:101FD0008A68510602D410F0280F1CD000F0E0F8F7
:101FE00028688168480611D500F0DDF8FCD1606AE8
:101FF00060B10FF299718163606A00F0C9FF002837
:102000000ED0606A816BBDE8F04108472846BDE804
:10201000F04101F097B8284601F094F80020606381
:10202000B2E02069012871D1D8066FD5F9066DD5C7
:102030001020106229688868410630D5616A0868F6
:10204000406880B20028EBD022889042E8DA6080B5
:10205000086801688A061AD400F0B3F821F4807188
:1020600000F09AF8F8D100F079FAFCD100F0AEF85F
:10207000FCD1202020630021216100F0A2F821F092
:10208000100100F089F8F8D1606A00F04DFF0220DD
:10209000606121886088091A89B2284632E0228866
:1020A00061886088511A00281CBF88B200286BD054
:1020B0002A46106850E8003F054623F4907300F06C
:1020C00065F8F6D1106800F1080300F1080653E83E
:1020D000003FDFF81803034046E800300028F1D144
:1020E0002020206300232361A361136853E8003F8D
:1020F000156823F0100300F049F8F6D10220606162
:1021000089B21046BDE8F04101F01DB8D80209D5EA
:10211000710207D54FF4801010622846BDE8F041E7
:1021200001F012B8180609D5390601D4300205D5D8
:10213000E16949B32846BDE8F0410847580611D582
:1021400079060FD500F03DF821F0400100F024F8A9
:10215000F8D12020E0620021E1612846BDE8F0418D
:1021600001F019B8180206D5790004D52846BDE853
:10217000F04101F023B8D80148BF002F04D528460C
:10218000BDE8F04101F01BB8BDE8F08145E8003042
:102190000028704721F4F07142E8001000287047D1
:1021A000284600F0B8BA296801F1080252E8001F79
:1021B000286800F1080321F0400143E800100028DE
:1021C0007047286850E8001F02467047286800F1F1
:1021D000080151E8001F00F1080321F0400143E825
:1021E0000010002870470000212800087D28000802
:1021F000C92700089F27000800800040F8B5044662
:10220000DFF8C40822681368A168034020690B4303
:1022100061690343E0690B43034313600025516880
:10222000E06821F4405101435160A369DFF89C1834
:102230008A421CBF206A03439668DFF84009DFF832
:1022400040E9DFF8407906403343936068A6D36ADB
:10225000606A1B0940EA0313D3627245DFF828095C
:1022600048F2060338D13F6807F00307032F4CD824
:10227000DFE807F0024542484FF0010CE169B1F593
:10228000004F4FF6F07740F07F80BCF1010F09D08E
:10229000BCF1020F0AD0BCF1040F70D0BCF1080FE2
:1022A00070D098E001F01EFB002814D0626A6168CB
:1022B00036F81230B0FBF3F04A0802EB4002B2FBF2
:1022C000F1F0A0F11001B942EBD20740C0F3420097
:1022D00007432068C7607FE08A4216D13F6817F441
:1022E000406723D0B7F5806F09D0B7F5006F03D0F2
:1022F000B7F5406F06D008E04FF0020C07E04FF052
:10230000040C04E04FF0080C01E04FF0100C8A427E
:10231000B4D1BCF1000F09D0BCF1020F0AD0BCF15E
:10232000040F15D0BCF1080F15D054E001F0D2FA1B
:10233000002851D0616A36F81120B0FBF2F66268CD
:1023400002EB42018E4246D31303B34205D242E070
:1023500001F076FAECE71846ECE75008002110EBA4
:10236000062051EB16610023FFF758FCA0F54076DC
:10237000DFF84079BE422ED22168C8602CE001F01F
:102380005FFA91E7184691E7BCF1010F09D0BCF163
:10239000020F09D0BCF1040F18D0BCF1080F18D0FF
:1023A00019E001F09FFAB8B1626A36F8123061683C
:1023B000B0FBF3F000EB5100B0FBF1F0A0F1100125
:1023C000B94208D2226880B2D06005E001F038FA44
:1023D000E9E71846E8E7012504F168000121002338
:1023E00041800180C36003612846F2BDFEFFFFEF1C
:1023F000010002000400060008000A000C001000A2
:10240000200040008000000190F82810CA0706D57F
:1024100002685368C16A23F400330B43536090F899
:1024200028108A0706D502685368016B23F48033AD
:102430000B43536090F828104A0706D5026853688A
:10244000416B23F480230B43536090F828100A0754
:1024500006D502685368816B23F400430B43536035
:1024600090F82810CA0606D502689368C16B23F459
:1024700080530B43936090F828108A0606D50268B3
:102480009368016C23F400530B43936090F8281079
:102490004A0610D502685368416C23F480130B433D
:1024A0005360436CB3F5801F05D15368816C23F4EE
:1024B000C0030B43536090F828100A0606D5016844
:1024C0004A68C06C22F4002202434A607047F8B5A3
:1024D000054605F184040020E0606FF07E4701F0BE
:1024E00099FA0646286801680A0711D5009733460D
:1024F00000224FF40011FFF77DFC48B1FFF761FEA9
:1025000021F08001FFF748FEF8D12020606017E03D
:10251000286801684A0717D50097334600224FF410
:102520008001FFF767FC78B1FFF74BFE21F4907153
:10253000FFF732FEF8D100F011F8FCD12020A060A6
:10254000002121700320F2BD202060602021A160C5
:102550000020E866002129672070F2BD286800F19C
:10256000080151E8001F490800F10803490043E849
:102570000010002870472DE9F041069C05460E46E4
:1025800090461F462868C1693140B1420CBF012006
:102590000020404531D114F1010FF3D001F03AFA97
:1025A000C01B844200D314B90320BDE8F081286821
:1025B00001684A07E6D5C169080704D42968C869D3
:1025C0000105DFD50CE02A6808201062FFF7E8FD5E
:1025D00005F184000821C160002202700120E4E7B7
:1025E00029684FF400600862FFF7DAFD05F1840006
:1025F0002021C16000220270D6E70020D5E750B547
:10260000034600209965FF2403F15C010A804A809B
:1026100088619868B0F5805F04D1186990B940F27C
:10262000FF140FE018B9186960B17F2007E0B0F11E
:10263000805F06D1186908B97F2403E03F208880B5
:1026400001E000248C800020486322240C63186879
:1026500000F1080454E8004F00F1080644F00104BA
:1026600046E800400028F2D18868B0F1005F23D12D
:102670008889824220D39A68B2F5805F04BF1869C6
:10268000002803D10FF255428A610BE00FF2993412
:102690008C61186930B100F031F841F48071FFF7B6
:1026A0007BFDF8D100F02FF841F0805144E8001094
:1026B0000028F7D1002050BD9868B0F5805F04BFB6
:1026C000186900280CD10FF26D228A61186850E851
:1026D000001F024641F02001FFF75EFDF6D1E9E759
:1026E0000FF201228A6118690028EFD000F006F885
:1026F00041F49071FFF750FDF8D1DBE7196851E81C
:10270000001F1A687047186800F1080151E8001F9F
:1027100000F10804704710B500F011F8FCD100F08A
:1027200018F8FCD1C16E012902D100F025F8FCD1C6
:102730002021C0F88C100022C266426710BD0168DB
:1027400051E8002F0B4622F4907243E80021002943
:102750007047016801F1080201F1080452E8002FF6
:10276000DFF854150A4044E80021002970470000B2
:102770000100001020010004026852E8002F0368E5
:1027800022F0100243E8002100297047806A00F11E
:10279000560100220A8100230B8000F0D3BCD0F840
:1027A000881021290FD1B0F8561001B923E0016D2E
:1027B00003680A789A62016D4A1C0265B0F85610E7
:1027C0004A1EA0F856207047D0F88810212911D150
:1027D000B0F8561001B90EE0016D03680A88C2F323
:1027E00008029A62016D8A1C0265B0F856104A1EF2
:1027F000A0F856207047026852E8002F036822F0C4
:10280000800243E800210029F5D1016851E8002F3A
:102810000B4642F0400243E800210029F5D1704701
:10282000D0F88810212900D0704730B500F1560249
:10283000938A0DE00168CC69250608D5046D2578DA
:102840008D62016D4C1C04651588691E11805B1E2C
:1028500099B241B111880029ECD100F035F8FCD1D2
:1028600000F002F8FCD130BD016851E8002F0B46A2
:1028700042F0400243E8002100297047D0F8881058
:10288000212900D0704730B500F15602938A0FE03D
:102890000168CC6925060AD5046D2588C5F30805AD
:1028A0008D62016D8C1C04651588691E11805B1E8C
:1028B00099B241B111880029EAD100F005F8FCD1A4
:1028C000FFF7D2FFFCD130BD026802F1080151E8E8
:1028D000002F036803F1080422F4000244E80021F9
:1028E0000029704738B500F04DF81ED14B6A918829
:1028F000846D0B402370816D4B1C00F049F818D19A
:1029000000F04DF800F060F8FCD100F06AF80BD14F
:102910000023136100F04EF8FCD10168CB69DC069E
:1029200044BF10230B6276E07AE0886940F008002B
:10293000886131BD38B500F025F81ED14B6A918809
:10294000846D0B402380816D8B1C00F021F818D121
:1029500000F025F800F038F8FCD100F042F80BD177
:102960000023136100F026F8FCD10168CB69DC0676
:1029700044BF10230B624EE052E0886940F008002B
:10298000886131BD00F15C020168136B222B704736
:10299000836551884B1E5380518800297047036816
:1029A00053E8003F046823F4907344E800310029A1
:1029B000F5D17047016851E8003F0C4623F0100341
:1029C00044E8003100297047016801F1080353E829
:1029D000003F5B0801F108055B0045E80031002974
:1029E0007047202111630023936100215161374B0F
:1029F000016899420CD049680B0209D5016851E879
:102A0000003F0C4623F0806344E800310029F5D1F3
:102A10001169012970471188BDE8344000F093BB6B
:102A2000BDE8324000F0ADBB2DE9F84300F0B4F84A
:102A300045D1A08980B96088002842D0A189884208
:102A40003FDA00F0EEF89D48A06100F0D3F8FCD129
:102A500037E0304600F095FBA806ECD500F096F87C
:102A60000870B06D421C00F0F2F812D0E90748BFC0
:102A70005FEAC95200F09EF803D5F90701D500F0CE
:102A8000DEF800F0A0F820B1304600F05BFB00203B
:102A9000606360880028DFD100F0A2F8FCD100F06C
:102AA000B3F8FCD100F0ECF8D3D100F0D9F844BF72
:102AB000102101622188304600F045FBCCE700F090
:102AC00007F8BDE8F1830000F369FFCF0080004004
:102AD000816941F008018161704700002DE9F843E8
:102AE00000F05AF845D1A08980B96088002842D00A
:102AF000A18988423FDA00F094F87148A06100F0A3
:102B000079F8FCD137E0304600F03BFBA806ECD565
:102B100000F03CF80880B06D821C00F098F812D0EC
:102B2000E90748BF5FEAC95200F044F803D5F90746
:102B300001D500F084F800F046F820B1304600F0EE
:102B400001FB0020606360880028DFD100F048F8B6
:102B5000FCD100F059F8FCD100F092F8D3D100F08C
:102B60007FF844BF102101622188304600F0EBFA63
:102B7000CCE7FFF7ADFFBDE8F1830000FFF4FF11E4
:102B800000380140880000580024F4003168486A89
:102B9000B16D08EA00007047064606F15C04306833
:102BA000B4F80480C5690146D1F800908768216BAC
:102BB0002229704705D501210162606B40F00100B8
:102BC0006063A8077047680708D5F90706D532681B
:102BD00004201062606B40F002006063606B70471D
:102BE000316851E8001F326821F4807142E800101A
:102BF00000287047316851E8001F326841F0200119
:102C000042E8001000287047306800F1080100F128
:102C1000080351E8001F2848014043E8001000283D
:102C20007047306800F1080252E8001F00F1080800
:102C300021F0805148E800100028F2D17047326836
:102C400002201062606B40F0040060637047B26560
:102C50006088411E61803068C56915F0070F7047B4
:102C600000212161306850E8001F024621F0100168
:102C700042E800100028F5D13068C169CA067047E3
:102C8000202020630021A161002060610D4930688F
:102C900088420CD04068010209D5306850E8001F16
:102CA000024621F0806142E800100028F5D1206939
:102CB0000128704700FD0F00FEFFFFEFE528000828
:102CC0003529000800800040584981B00A68024355
:102CD0000A60096808400090009801B0704780B50C
:102CE0004FF40020FFF7F0FF002200212E2000F01B
:102CF000B1FEBDE802402E2000F0CABE00684C497B
:102D0000884204BF4FF48010FFF7DEBF704730B534
:102D100095B00446502101A800F010FF22684549F3
:102D20008A4225D100F00EFF434D00F00BFFA96B46
:102D3000012060F30921A9634FF400624FF4807110
:102D40000192119101A800F01BFF08B101F0F4FA03
:102D5000A86B40F40040A863296841F480612960B1
:102D6000286800F4806000900098204601F0F1FA95
:102D700015B030BD38B59AB00446142101A800F052
:102D8000DDFE502106A800F0D9FE20682B498842BC
:102D900049D10122002106920C9106A800F0F0FE14
:102DA00008B101F0C9FA2648264D416941F4804135
:102DB0004161416901F4804100910099026842F04B
:102DC00002020260C021006800F0020000900222AE
:102DD00000981D48019102920121039103220721CD
:102DE0000591049201A901F0CDFA184828600F213D
:102DF000696000201022E86080216861A861E861B4
:102E00002862AA602961284600F022F808B101F082
:102E100093FAE567AC6200220021242000F01AFE3C
:102E2000242000F035FE1BB030BD000050000058DB
:102E3000000C00580028004058000058003801409D
:102E40004C000058E01900200004004844040240EF
:102E500038B5040001D1012032BD2168DFF8BC2261
:102E6000914204F1240500F046F8022169702068BF
:102E70000268A068E16823686FF30E1202432069BC
:102E80000A4361690243A0690A43E1690243206A77
:102E90000A4302431A60204600F012F9A068B0F518
:102EA000804F04BF002161602079696A00F03F0013
:102EB00000F014F838B1052805D2204600F01DF9BD
:102EC00000F012F803E0002028636863A863002183
:102ED000A961012068702970002032BD0860A96ACC
:102EE000E86A486060687047296B00200860696B79
:102EF000A86B486070470BD2DFF8240241181423F6
:102F0000B1FBF3F18900DFF81C222962EA61704706
:102F1000DFF8140241181422B1FBF2F18900DFF846
:102F20000C022962E861704740B100F124014A783F
:102F3000022A05D00420886100220A70012070470F
:102F40000268136823F00E0313604A6A136823F4BF
:102F5000807313600068026852085200026001200A
:102F600091F82020CB6902F01C02904058608A6AD8
:102F7000C86A5060086B30B1026822F48072026047
:102F8000486B8A6B426001224A70002008707047CB
:102F900038B500F1240200245178022903D004201E
:102FA0009061012428E001680B6823F00E030B6098
:102FB00001680D686D086D000D60516A0B6823F49F
:102FC00080730B60012192F82030D56903F01C0357
:102FD00099406960936AD16A5960116B31B10B688D
:102FE00023F480730B60516B936B4B600123537020
:102FF0001470516901B18847204632BDF8B500F11F
:1030000024010423CA6914680268156891F82060D5
:1030100006F01C0603FA06F73C4210D06F070ED5E7
:103020001468A50603D4146824F00404146000F0A6
:103030003EF8C968002939D0BDE8F44008470223AA
:1030400003FA06F73C4213D0AF0711D51468A50662
:1030500005D4146824F00A04146001224A7000F0B8
:1030600026F800220A70896801B3BDE8F4400847D9
:10307000082303FA06F6344218D02B0716D5146835
:1030800024F00E041460012291F82030CC6903F082
:103090001C039A406260012301228A614B70002266
:1030A0000A70096911B1BDE8F4400847F1BD91F813
:1030B0002020CC6902F01C0293406360704700003E
:1030C00010B5416C0268154B89089A4239BF184CFB
:1030D00004EB8101174B03EB8101816402F0FF02D5
:1030E000083A1421B2FBF1F1012301F01F01124A49
:1030F000C26403FA01F1016510BD01790F4A104B5A
:10310000836501F03F0102EB81024265491E012205
:1031100001F003018A40C2657047000008040240C4
:10312000F8FFFDBF00000240F8FBFDBF00040240B5
:10313000000802401C08024080080240FC080240CF
:10314000400902407047704770470000002800D0D7
:10315000704710B5154C00F00FF8BDE81040FEF7B1
:1031600092BE002800D0704710B5114C00F004F852
:10317000BDE81040FEF741BE0E4823600E4B0360D1
:10318000704700680C49884204D1084A106800283A
:1031900018BF0047704700680749884204D1044AB5
:1031A0001068002818BF004770470000A01B0020CF
:1031B000A41B00207817002000380140704770479A
:1031C0004FF0B040006800F0F000B02888BFB02099
:1031D0007047DFF8CC070068000100F0F00070478E
:1031E0002DE9F04104004BD0207881064FF0B04526
:1031F00034D5A868E96810F00C0001F0030103D091
:103200000C2808BF01293DD1E069002838D0FFF71C
:10321000D7FF616A88420CD2084600F075FB00288F
:103220002ED12968606A21F0F001014300F01AFAFA
:1032300009E0286820F0F000014300F013FA606A0A
:1032400000F062FBE0B900F037FBDFF858170860C8
:10325000DFF85407006801F001FA88B92078C10747
:1032600068D5A868E96800F00C00082801F003019F
:1032700003D00C2808BF032934D16068002859D135
:103280000120EDE1E069E8B1296841F0010100F0B9
:10329000D4FA06462868800706D400F0BBFB801BE2
:1032A0000328F7D30320DBE12868616A20F0F000EF
:1032B000084328606868216A20F47F4040EA0120C2
:1032C0006860CBE728684008400000F08AFB0646AB
:1032D00028684008C007C1D500F09CFB801B03286C
:1032E000F6D3DFE76068B0F5803F04D1296841F488
:1032F0008031296003E0286820F48030286060680D
:1033000058B100F087FB06462868800312D400F00D
:1033100081FB801B6528F7D3C4E700F07BFB0646E2
:103320002868400CC00705D500F074FB801B652899
:10333000F6D3B7E72078810715D5A868E96800F0CB
:103340000C00042801F0030103D00C2808BF022957
:1033500028D1E068002893D06868216920F0FE40F9
:1033600040EA016068602168DFF8406611F0180FDC
:1033700000F08B806069002877D0C806706858D547
:10338000800730D4716841F00101716000F042FBA8
:1033900007467068800726D400F03CFBC01B03285A
:1033A000F7D37FE7E06870B1296841F4807100F0DD
:1033B00044FA064628684005CED400F02BFB801B5B
:1033C0000328F7D36EE7286820F4807000F009FB2B
:1033D00006462868800AC007C5D500F01BFB801B85
:1033E0000328F6D35EE7706840F0040000F043F96C
:1033F00007467068000705D400F00CFBC01B0428CA
:10340000F7D34FE77068A16920F4706040EA0120AB
:10341000706070684008400000F02DF90746706841
:103420004008C00731D500F0F5FAC01B0328F6D3D9
:1034300038E740F0010000F01EF907467068800789
:1034400005D400F0E7FAC01B0328F7D32AE7706819
:1034500020F0040070607068C008C00715D500F047
:10346000D9FAC01B0428F6D31CE7706820F00400CA
:1034700000F001F907467068C008C007C9D500F020
:10348000C9FAC01B0428F6D30CE7207841074BD5B6
:10349000DFF81C753868C1050ED400F053FB00F04E
:1034A000B9FA80463868C10506D400F0B3FAA0EB3B
:1034B00008000328F6D3F5E6A068012804D1306897
:1034C00040F00100306010E00528306806D140F07F
:1034D00004003060316841F0010105E0400840001F
:1034E0003060316821F004013160A06841F2893711
:1034F00060B100F08FFA80463068800714D400F085
:1035000089FAA0EB0800B842F6D3CBE600F082FAC5
:10351000804630684008C00706D500F07BFAA0EB73
:103520000800B842F5D3BDE62078410620D5A06A50
:103530000028B0680DD040F0010000F077F9074690
:10354000B068800714D400F065FAC01B0328F7D3D5
:10355000A8E64008400000F069F90746B068400856
:10356000C00705D500F056FAC01B0328F6D399E62C
:10357000E06A002873D0A968EA68022801F00C010B
:1035800059D1236B02F00300984202BF02F0700091
:10359000636B984213D1A36BC2F30620984202BF1B
:1035A00002F47810E36B984209D1236C02F060605A
:1035B000984202BF02F06042606C824237D00C2910
:1035C0003AD0286841013FF55BAE00F007FA0646A5
:1035D0002868810105D500F01DFA801B0328F7D368
:1035E00060E6E868DFF8CC13226B0840616B10439B
:1035F000A26B0843E16B40EA0220226C0843616C35
:1036000010430843E860286840F080702860E9684B
:1036100041F08051E96000F0FDF90446286881011D
:103620001DD400F0F7F9001B0328F7D33AE6286809
:10363000810114D4E7E70C293FF422AE00F0CEF963
:1036400004462868810105D500F0E4F9001B032831
:10365000F7D327E6E868DFF860130840E860002049
:10366000BDE8F08129606968206A21F47F4141EA60
:10367000002169607047706000F0CCB92DE9F84313
:103680000400884600F0AE80DFF8305300F0C9F83F
:103690000CD200F0CEF8064600F0C3F806D000F0D9
:1036A000B9F9801B0228F7D90320B8E020788107F8
:1036B0004FF0B04611D5B268A06822F0F002024384
:1036C000B26000F0A7F90746B068C00305D400F067
:1036D000A1F9C01B0228F7D9E6E72078DFF8C0720D
:1036E000810612D53A68606922F0F00202433A601E
:1036F00000F090F981463868800306D400F08AF91A
:10370000A0EB09000228F6D9CEE72078410613D5B0
:103710003868A1690009000140EA1110386000F022
:1037200079F981463868C00306D400F073F9A0EB3C
:1037300009000228F6D9B7E72078410711D5B26809
:10374000E06822F4E0620243B26000F063F90746E9
:10375000B068800305D400F05DF9C01B0228F7D9DA
:10376000A2E72078010711D5B068216920F46050E4
:1037700040EAC10000F05AF80746B068400305D49B
:1037800000F048F9C01B0228F7D98DE72078C1075F
:103790002AD56068022818D13168890322D5B26819
:1037A000920840EA820000F041F80746B06861687C
:1037B00000F00C00B0EB810F16D000F02BF9C01B0D
:1037C00041F289318842F1D36EE7032802D1316892
:1037D000890103E00028316802D18907DFD401E0C4
:1037E0004905DCD401201AE0286800F00700804574
:1037F0000BD200F01EF8044600F013F805D000F0DC
:1038000009F9001B0228F7D94EE700F055F8654981
:10381000086000F059FFBDE8F24300F01FBFBDE8AB
:10382000F283286800F0070040457047B06000F060
:10383000F1B82968C90848EAC101296000F0EAB86E
:1038400038B54FF0B0445F4DA16811F00C0106D1BE
:10385000FFF7B6FCC0F3031055F8200032BD042971
:10386000594A05D00829594804D12168C90222D5EE
:10387000104632BDE16801F00301022904D003299A
:1038800004D12168C90207D5104605E0FFF798FC6E
:10389000C0F3031055F82000E168E268E368C1F363
:1038A00006214843C2F30211491C5B0FB0FBF1F043
:1038B0005B1CB0FBF3F032BD80B5FFF7C1FF4049A0
:1038C000FFE7434A0968C1F3031152F82110B0FB26
:1038D000F1F002BD80B5FFF7EFFF00F010F8C1F383
:1038E000022106E080B5FFF7E7FF00F008F8C1F31A
:1038F000C22112F8211001F01F01C84002BD304959
:10390000344A09687047000070B52E49B1282EBFAF
:10391000CC6AC0F3031051F82040FFF75AFC05466B
:1039200000F0ECFE2A49C5F3031251F822102A4A8E
:10393000B4FBF1F15FF00004B1FBF2F1B0F5007FF0
:1039400030A220461FD100BF27A353F820508D423C
:1039500016D2401C0328F8D9184D2868C00844EA3C
:10396000C00000F03EF80646286800F00700A042BC
:1039700013D000F04FF8801B0328F5D3032070BD4F
:1039800052F82040E8E700BF1BA353F820508D42B7
:10399000F6D2401C0328F8D3DEE7002070BD0000FB
:1039A000080100585C1100204811002090000058C8
:1039B000000400588C80C111FCFFFEEE004000584E
:1039C00008000058F88100080024F4000048E801CD
:1039D000B8810008E483000840420F00286820F006
:1039E0008070286000F016B812000000240000006B
:1039F0003600000040000000060000000C0000003F
:103A000010000000000000000100000002000000A3
:103A10000300000001484068704700BF40110020CB
:103A20000901020002D43C48815470473B4B02F02C
:103A30000F021A4402F8041C7047394B19684FF6FC
:103A4000FF020002114000F4E060084335490843DA
:103A50001860704770B5324B1C68C4F30223012410
:103A6000C3F10705052D2EBF0F2504FA05F56D1EC0
:103A70001E1D072E34BF0023DB1E2940994004FA87
:103A800003F3BDE870405B1E1A401143C8E7000015
:103A9000010007D4012200F01F01234B8A40400996
:103AA00043F82020704701000BD4012200F01F01D1
:103AB0001E4B8A40400943F82020BFF34F8FBFF3CD
:103AC0006F8F704710B5401EB0F1807F01D3012089
:103AD00010BD174C60600F214FF0FF30FFF7A0FFC3
:103AE0000021A16007202060002010BD010007D444
:103AF000012200F01F010F4B8A40400943F82020AB
:103B00007047010007D4012200F01F010A4B8A40D0
:103B1000400943F82020704700E400E018ED00E081
:103B20000CED00E00000FA0500E100E080E100E0BB
:103B300010E000E000E200E080E200E0002200F09F
:103B4000E5BD00000248016841F4807101607047E2
:103B500000040058DFF81C130A68030903F47F23EC
:103B600000019A4300F47F2000F081B9DFF80423BC
:103B70001368010C23EA014343EA004313607047D2
:103B80002DE9F843054600242878DFF8E86241066D
:103B9000A0464FF0B04743D5286B70B1B0F5800F09
:103BA00006D0B0F5000F18BFB0F5400F2ED035E0AD
:103BB000F96841F48031F96029E0386820F08060CC
:103BC0003860FFF727FF81463868C00EC00707D569
:103BD000FFF720FFA0EB09000228F5D9032415E028
:103BE00000F02EF9A96820F4781000F038F9814629
:103BF0003868000106D4FFF70DFFA0EB090002288A
:103C0000F6D9EBE738696969084338613CB931682E
:103C1000286B21F440010143316001E00124A046FA
:103C20002868010532D5D6F80880286C08F4407859
:103C300080452AD0FFF786FFB8F1000FB16805D1A3
:103C4000286C21F440710143B1601EE0B06840F47B
:103C50008030B06021F44071B06820F48030B060F2
:103C6000286C0143B160B068C0070ED5FFF7D2FEE3
:103C70008046B068800708D4FFF7CCFEA0EB0800B0
:103C800041F289318842F4D30324A0462878C10741
:103C900005D53268A869920840EA82023260297824
:103CA000880705D53168E86921F440610143316036
:103CB0002978C80644BFA86AFFF758FF287881060C
:103CC00044BFE86AFFF752FF2878410744BF286ADB
:103CD000FFF740FF2878010744BF686AFFF73AFF03
:103CE0002868C10532D53268686B22F04062024311
:103CF0003260696BB1F1006F00F09CF8686BB0F155
:103D0000806F23D100F0A5F804463868C00EC007C4
:103D100007D5FFF77FFE001B0228F6D94FF00308F6
:103D200014E000F08DF8E96820F0606000F097F88A
:103D300004463868000105D4FFF76CFE001B02281A
:103D4000F7D9EBE738696969084338612868810564
:103D50001CD5A86BB0F1804F18BFB0F1004F00D058
:103D600020B9316821F04041084309E0316821F071
:103D70004041316020F08050326822F040621043B0
:103D80003060A86BB0F1C05F00F054F828684105BE
:103D900035D53268E86B22F0405202433260E96B5D
:103DA000B1F1005F03D1F86840F48030F860E86B4F
:103DB000B0F1805F23D100F04CF804463868C00EA3
:103DC000C00707D5FFF726FE001B0228F6D94FF0E3
:103DD000030814E000F034F8296920F0604000F096
:103DE0003EF804463868000105D4FFF713FE001BB7
:103DF0000228F7D9EBE73869696908433861286810
:103E0000C10405D5F268686C22F440420243F260B6
:103E1000296888040BD5796AE86C21F030010143E8
:103E20007962796AA86C890840EA81017962404622
:103E3000BDE8F28303D1F86840F08070F860704705
:103E40003869696820F4FE4040EA01203861386929
:103E50007047396821F080613960FFF7DBBD0843A6
:103E60003861386840F080603860FFF7D3BD104398
:103E70000860704788000058DFF8841401E0DFF81C
:103E8000841481B00A6802430A60096808400090FF
:103E9000009801B070472DE9F04F85B000F000FCAC
:103EA00000F04EFC00F0A0F900F0E2F9DFF8584411
:103EB000DFF85804606204F1240000F0DFFD08B16F
:103EC00000F03AFA14216846FFF738FE0120FFF7A8
:103ED000D6FF0420FFF7D3FF0220FFF7D0FF082012
:103EE000FFF7CDFF1020FFF7CAFF8020FFF7C7FFC5
:103EF00000220321DFF81804DFF81884DFF8189493
:103F0000DFF818A4DFF8185400F089FB00224FF402
:103F10004071404600F083FB00224FF48071484618
:103F200000F07DFB00220421504600F078FB2520A4
:103F300000F040F900F01FF93A2000F03BF900F0E2
:103F400036F940F6044000F021F9404600F009F946
:103F500000F03EF94FF4007000F0F6F80A2200F08D
:103F600003F900F039F9082200F01FF900224FF49C
:103F7000807600960292039212210191042200F0B1
:103F8000F3F800F025F94FF4815000F0F8F82846D6
:103F900000F0F8F900F01CF94FF4004000F0D4F8FC
:103FA000012200F0E6F84FF4806B12210022CDF8D8
:103FB00000B0019102920392042200F0DAF800F0BE
:103FC00007F94FF4C05000F0E6F800F001F90320C3
:103FD00000F0BAF8052200F0F4F800F0F9F8C0207B
:103FE00000F0B2F8092200F0E0F800224FF4404758
:103FF00000970292039202210191052200F0B4F889
:10400000122000F0C3F800F0ABF800F0E1F8022154
:10401000019101220492CDF800B000F0A6F804202E
:1040200000F0B4F8284600F09CF800224FF44075E8
:1040300000950292039202210191032200F099F867
:1040400000F0C6F8402000F09AF800F094F800F074
:10405000BFF8082000F09FF8032100F079F8AC4881
:1040600000F090F90097022100F0B2F801910122CE
:1040700000F0A7F843F2100000F088F8484600F07E
:1040800070F84FF4017000904FF4881701970021E9
:104090000291484600F065F8009500F097F800F0AE
:1040A00085F800F095F8682000F04EF80A2200F03C
:1040B00088F80821009101970021029100F050F842
:1040C000009600F083F800F07DF800F081F84FF4DE
:1040D000406000F039F8092200F073F8042100F084
:1040E00037F8504600F04EF900F076F80E220492B0
:1040F0006946504600F046F90420FFF7BDFE022055
:10410000FFF7BAFE00220F213A20FFF7A3FC3A2066
:10411000FFF7BEFC83482060002147F6FF700F22A6
:10412000E0606160A2602161A161E161616120469E
:1041300000F0DCFC08B100F0FFF800F0B1F800F08E
:1041400043FB00F02EFCFCE7022100900191704738
:10415000009101220021029103910192694670476A
:104160005046694600F00EB904926946284600F0B0
:1041700009B9049269464FF0904000F003B902215A
:104180000090019108220492694670470021009036
:104190000191029170470221009001910A2204923C
:1041A00069464FF0904000F0EDB8049269464046F1
:1041B00000F0E8B8032100900191002202926946C4
:1041C000704704926946484600F0DCB8012001902F
:1041D0000022029203927047002202920392012071
:1041E000022100900191704780B59AB0482108A83B
:1041F000FFF7A4FC1C2101A8FFF7A0FCFFF7A2FC1D
:1042000049480268022161F3C40202600121474863
:10421000026861F34A2202600722006800F4C0606D
:1042200000904FF480330099089201214FF480727E
:104230000A910B924021002209930C91139208A835
:10424000FEF7CEFF08B100F077F86F200221019051
:104250000291002203920492059206920792012194
:1042600001A8FFF70BFA08B100F066F81BB000BD1B
:1042700080B594B050216846FFF760FC4FF440527F
:1042800000924FF48040119002210022129113926B
:104290006846FFF775FC08B100F04EF815B000BD98
:1042A00010B5234C234820604FF461210C2060613D
:1042B00000224FF40040E0616160A260E260226190
:1042C000A26122626262A2622046FDF753FD08B13C
:1042D00000F032F80021204600F0C8FC08B100F0E0
:1042E0002BF80021204600F0CCFC08B172B6FEE7A6
:1042F000204600F09DFC08B172B6FEE710BD00003C
:10430000480000584C00005880190020000C00584C
:10431000001C004800080048000C0048001000483D
:104320000004004800280040900000580004005895
:10433000781700200038014072B6FEE78A60FF213E
:104340000268516280F82130002180F8201000209E
:10435000704790F82010012901D1022070470121F7
:1043600080F82010022280F82120CA2103685962B7
:10437000532201684A62012301688A6842F02002E0
:10438000FFF7DCBF2DE9F04F0027AC4AAC4B4FF0F4
:104390000F0805460E4638E0AA4CA54214BF072474
:1043A00004248C40A84944EA0E0441F82C40C1433F
:1043B000D3F800C0746801EA0C0CE40248BF40EA7C
:1043C0000C0CC3F800C0D3F804C0746801EA0C0CEC
:1043D000A40248BF40EA0C0CC3F804C0D2F800C0E5
:1043E000746801EA0C0CE40348BF40EA0C0CC2F804
:1043F00000C0D2F804C001EA0C0C7168890348BF00
:1044000040EA0C0CC2F804C07F1C316831FA07F096
:1044100000F082800124BC4014EA0100F4D04FEA8D
:10442000470C032101FA0CF16FEA010E716801F0EB
:104430000309B9F1010F1CBF01F00301022912D1D8
:10444000A968D6F80C900EEA010109FA0CF949EABC
:104450000101A960696821EA04047168C1F30011CF
:10446000B9400C436C60B900347904F00304032CA8
:1044700021D0EC68D6F808900EEA040409FA0CF989
:1044800049EA0404EC60347904F00304022C12D1EC
:10449000FC0805EB840401F01C09D4F820A008FAFC
:1044A00009FB2AEA0B0AD6F810B00BFA09F949EA17
:1044B0000A09C4F820902C680EEA040E347904F03E
:1044C000030404FA0CF444EA0E0CC5F800C0746846
:1044D00014F4403F98D0DFF870E14FEA970C5EF893
:1044E0002C4001F00C0108FA01FE24EA0E0EB5F191
:1044F000904F08BF00240ED0544CA54208BF0124A1
:1045000009D0534CA54208BF022404D0514CA54207
:104510007FF442AF032444E7BDE8F08F2DE9FC4F60
:104520008B4600274649454ADFF81C810F23824607
:1045300049E0444EB24514BF0726042600959DF875
:10454000045006FA05F5009EAE4212D11568C0432C
:10455000054015605668064056600D6805400D60C0
:104560004E683040486058F82E0020EA040448F8AD
:104570002E400324780004FA00F0DAF800400443E7
:10458000FD08CAF800400AEB850E0CF01C05DEF8A9
:10459000204003FA05F524EA050CCEF820C0C043FC
:1045A000DAF80CC000EA0C0CCAF80CC0DAF804E027
:1045B0002EEA0909CAF80490DAF808C000EA0C00EB
:1045C000CAF808007F1C3BFA07F026D0012000FA49
:1045D00007F919EA0B00F5D04FEA970E58F82E505C
:1045E0004FEA870C0CF00C0603FA06F425408DF810
:1045F0000460BAF1904F08BF00269FD0134EB24519
:1046000008BF01269AD0124EB24508BF022695D0A7
:10461000104EB2458DD1032690E7BDE8F38F0AB165
:1046200081617047816270470B4A136801460B42F3
:104630001CBF116000F0BDB9704700008008005831
:10464000000800580010004808000140000400481D
:1046500000080048000C00480C08005870B50F4EC8
:10466000044630780025A8B1FFF726F932784FF4D8
:104670007A71B1FBF2F2B0FBF2F0FFF723FA48B91E
:10468000102C07D2002221464FF0FF30FFF7E2F94D
:10469000B46000E00125284670BD00BF4011002035
:1046A000134810B5016841F4807101600320FFF7E1
:1046B000C4F90020FFF7D2FF0024002814BF012412
:1046C000FEF70DFB204610BD0A4880687047094878
:1046D00000787047084805E00748016841F002018A
:1046E00001607047016841F00101016070470000FE
:1046F0000040005840110020042004E0DFF80800CA
:10470000006800F4C06070470004005800B500BFA6
:10471000130096469446103928BFA0E80C50FAD8EA
:104720005FEA417C28BF0CC048BF40F8042BC90792
:1047300028BF20F8022B48BF00F8012B00BD000065
:104740001CB5BA49BA4C4FF400400860606C400197
:104750000ED5606CC0000BD4FFF7F4F9FFF7F2F947
:10476000206C40F480302064206C20F48030206481
:104770003F22206840F480102060216801F48011FD
:1047800000913F210098AB4841604261016841F4CB
:104790007C110160026942F47C120261016841F0FF
:1047A0003F010160026942F03F020261002000F017
:1047B000BBFA40B18079A049E164E26C22F47C52FA
:1047C00042EA0022E26413BD18B59C489C4C89B0B3
:1047D000016841F050010160CA229A48C261532128
:1047E000C161FF210268D208D2000260C16196480F
:1047F000026842F40042026000F0AAFA934802689C
:10480000042161F3020202600020914900F0D3FB11
:1048100000F05BFD0121012000F0A7FA002100203B
:1048200000F0F8FD8B4801F015F8002001F041F888
:104830000021002000F006FF002000F05DFE0020B7
:1048400000F06FFE844801F053F8FF2001F043F8B8
:10485000002001F046F80021002000F0F3FE0020C7
:1048600000F05FFE01F055F901F0CAF900F038F8E8
:104870000121002001F0D6F90121012001F0D2F937
:104880000FF23D13012221460020FEF75FFC01F0EC
:10489000B3FA04F1080001F0A7FB0FF2B502002102
:1048A000402001F046FC6D4C6D490FF28D020091E5
:1048B00004F23C5002900192684601F0F6FA04F2CC
:1048C0005471039104F5C96240F23C51049206917F
:1048D000059403A801F022FB01F08CFA0AB010BD88
:1048E00000B585B014216846FFF728F901F062F998
:1048F0000221019102918020002100900391052264
:10490000049269464FF09040FFF73CFD05B000BDB2
:1049100010B5044601F0FDF8204601F070F9BDE83D
:104920001040DDE780B501F0F4F801F069F9BDE869
:104930000140D5E70000000080B50146494801F07C
:104940005FFBBDE804400021402001F0FFBB0000F8
:1049500080B500F035FD0021012000F006FA69461F
:10496000404801F063FB009801F0F1FA01F056FCB9
:1049700001BD38B50446FFF74DF814F1010F0546A7
:1049800009D0FFF7A4FE241805E03748016821F09C
:104990000401016030BFFFF73DF8401BA042F4D393
:1049A00031BD02E07047000000BF4FF0FF3001F062
:1049B0004FBBB0F5805F08BF01F0FCBC7047000042
:1049C000F8B52A4C1E4E04F580752F88B7F5807F08
:1049D0001FD230780D2819D112A1204601F07AFE9D
:1049E00004F5827708B9224805E00FA1204601F0BE
:1049F00071FE20B91F486860384601F082FE4FF40E
:104A000080712046FFF79AF8002701E0E0557F1CEF
:104A10002F80314601B0BDE8F040174B0122002045
:104A2000FEF794BB535731005357320010400058E3
:104A300050000058040C0058FECAFECA90080058E6
:104A40005C1B002008280040080000588004005823
:104A5000801900202C8300084C11002014800320B2
:104A600097630008641B002010ED00E06015002033
:104A70000C0000160D000016C1490008F8B50446E8
:104A80000025ACB104F13406307910B92046FEF7A8
:104A900035F90F4F384600F021F8386840F0011022
:104AA0003860204600F007F835600121317100E0E0
:104AB00001252846F2BD10B50021064A064B00EB41
:104AC0008104491C06296360E261F8D310BD00002F
:104AD000000C0058DF1700088F1500080021016046
:104AE0004FF03F1242603F238360704738B50400A7
:104AF00052D094F8210028B9002184F820102046D3
:104B0000FEF705F90220DFF8B81084F821000A68E2
:104B1000D00645D42268CA215162532021684862D8
:104B200000F04BF8FF2510B100F03FF834E02168A9
:104B3000DFF890008A6802408A60226893686068A3
:104B400021690343A0690B43034393602068E16834
:104B5000016120680169A26841EA0241016120689F
:104B6000C16821F08001C1602068C16C890889009A
:104B7000C1642268D36CE16960690B430343D36469
:104B800021688868810609D400F015F830B100F07A
:104B90000CF8002084F82000012032BD2068456216
:104BA000012184F82110002032BD206845620421D3
:104BB00084F821107047204606E020461DE00000E2
:104BC0000C280040BFFF8FFF38B504462068C1683D
:104BD00021F0A001C160FEF71DFF05462068C168F5
:104BE000880608D4FEF716FF401B40F2E9318842E0
:104BF000F4D3032032BD002032BD38B5044620680E
:104C0000C1684A0612D44FF0FF31C160FEF702FFBF
:104C100005462068C168480608D4FEF7FBFE401B25
:104C200040F2E9318842F4D3032032BD002032BD86
:104C300010B500F184010A78012A01D1022010BDCB
:104C400001220A7024234B60026813681468640808
:104C5000640014600022426623F000530068036081
:104C600020224A6000230B70002010BD70B500F0B8
:104C70001FF801D1022070BD00F020F822F0604240
:104C800009E070B500F014F801D1022070BD00F009
:104C900015F822F0606211438160204600F01CF894
:104CA000206806602021696000222A70002070BD03
:104CB000044604F1840528780128704701202870F3
:104CC00024226A6020680668026852085200026066
:104CD000206882687047000030B5416E11B901212B
:104CE000012214E0016800BF0BA48A68D1F8081003
:104CF0000BA3520E02F00702490F655CA45C595CDD
:104D00009A5CED00E40095FBF1F194FBF2F268305F
:104D10004180028030BD0000010101030701000055
:104D2000080402040801010120B501460648074DA8
:104D300000E00838C2798A4218BFA842F9D18A42F5
:104D400018BF002020BD00BFF873FF1F0070FF1FB9
:104D50001148002101604160704710B500F00FF864
:104D60001C6800F011F81C6006E010B500F007F8B0
:104D70005C6800F009F85C6082F3108810BDEFF306
:104D8000108272B6044B704719B1012902D1044355
:104D900070478443704700007C1B0020DFF8EC1450
:104DA0000A6892B200E00246086880B28242FAD1F4
:104DB0007047F0B5DFF8D834DFF8D8541E781824DF
:104DC00002466243B0422A4404D118785870547D98
:104DD0001C700FE0167D507D92F815C005F1150787
:104DE0006643062807F806C004D0167D143514FB68
:104DF00000F42E55012010731A78062A02BF0029EC
:104E00004FF0FF30D860F0BD10B5DFF88444E068A3
:104E100010F1010F0ED0FFF7C1FFE16881422FBFF3
:104E2000E268E168E2888A182179101AE27848433A
:104E3000D04000E0002080B210BD2DE9F84FDFF82F
:104E40005884DFF858B4D8F80060DBF8000041055A
:104E500000F060F9DFF83854DFF838A420F48060FF
:104E6000B0604FF018092C780AF1080019FB04F122
:104E70004758FFF7C9FF874202D20027012105E00A
:104E800029894118B94203D22F890021A97015E060
:104E900001223F1AAA7011E00A590AF10803121AF6
:104EA0001A5108E009FB04F40AF108010A59824288
:104EB000F2D200230B510AEB04014C7D062CF1D1F8
:104EC000B8B238B9FFF76AFFE8600320BDE8F24FD7
:104ED000FEF70CBE022802DAE878012800D07F1E17
:104EE00000F01EF9DBF80C0067F30F00CBF80C00A4
:104EF000FFF754FFE860D8F80000816841F4806152
:104F00008160AFF30080BDE8F18F2DE9F843EFF346
:104F1000108472B6DFF88053DFF878332968CA202E
:104F2000486253224A628868DFF8642320F4806074
:104F3000886018201678374647431F4497F80CC0FE
:104F4000BCF1020F26D1D7F80080D7F810909078E6
:104F5000E8B17A7B012A0AD101213046FFF729FF07
:104F600084F310887968304600F0EAF804E084F3AE
:104F70001088304600F098F82868CA214162532210
:104F8000426231464246484601F0CAFB0EE0FFF756
:104F900054FF09E0C8684207FCD500F07EF84FF4E2
:104FA0000020DFF8FC12086084F31088FF222868D4
:104FB0004262BDE8F1832DE9F041DFF8DC4221686F
:104FC000CA224A6253234B62B44B1A6842F0200251
:104FD0001A601D68AE4A05F00705C5F10405D570D5
:104FE0009E68360C06F07F06761C16719B68C3F32C
:104FF0000E035B1CD3805B1E7343A3F5A073EB40D1
:105000004FF6FF75AB422CBF15811381A54B1D6870
:1050100045F400251D60A44D2E6846F400262E6040
:1050200040BB012090704FF0FF35D5600020994DB6
:10503000002605F10C085FFA80FC182515FB0CFC16
:10504000401CC7B208F80C60062FF4DB0620107075
:105050008A6822F480628A6000F01FF84FF4002111
:10506000D9600320FEF74DFD2068816841F480413E
:10507000816005E0C868410544BF0320FEF736FDA6
:105080002168FF204862002203210320FEF7E2FC92
:10509000BDE8F0410320FEF7FBBCC86800F08000CB
:1050A00060F49060C8607047F8B50746EFF310846D
:1050B00072B60320FEF7F7FC774D7C4A2E68CA20B3
:1050C000706253213B46182071624343D15C022930
:1050D00017D100213846FFF76CFE6D48017806298C
:1050E0000AD16E4801684A0500F014F820F4806087
:1050F000B06000F015F804E04078884218BFFFF770
:105100009CFE2968FF2048620320FEF7C1FC84F35F
:105110001088F1BD02D5F0684107FCD4B068704733
:10512000F0684107FCD5F0685D4900F0800060F44C
:105130009060F0604FF4002008600320FEF7E1BCAF
:105140002DE9F04704461825524E684337188A4621
:10515000397B022904BF2046FFF7A6FFEFF3108931
:1051600072B60320FEF79FFCDFF82C81D8F8000010
:10517000CA2141625322426202203873C7F808A054
:10518000C7F804A0DFF808A19AF80000062808D1A3
:1051900000F075F878754FF0FF31CAF80C10002058
:1051A00056E0FFF731FEB9680918B96006F1080347
:1051B000B9689AF800206A439A5891422AD39AF81B
:1051C000002004E006F1150E6A431EF8022006F1E5
:1051D000150315FB02FC13F80C30062B06D006F164
:1051E000080C6B435CF803309942EBD211466943DB
:1051F00006F1150E1EF80130062B05D006F1140C31
:1052000015FB03F50CF805407B753A7506F11502A0
:1052100054541DE09AF800109AF800C0614515FB3F
:1052200001F20FD006F1140E06F1150C1EF8023033
:1052300015FB03F50CF8054079753B7506F1140173
:105240008C5403E006F1140379759C5400F017F8B0
:105250009AF800109AF801208A4202D0FFF7EDFD7B
:1052600002E0B968081AB860FF20D8F80010486258
:105270000320FEF70DFC89F31088BDE8F0879AF84B
:1052800000108AF801108AF8004070472828004072
:105290006C1B00200C1800208019002008280040FA
:1052A0000C08005800080058800800581818002002
:1052B0003D4900E03D4981B00A6802430A6009683F
:1052C00008400090009801B07047F0B585B0FFF736
:1052D00001FAFFF701FA3648016841F480310160B4
:1052E00068461421FEF72AFC002600250024002130
:1052F000304A02EBC102907988B11368B3F1904F44
:105300000BD02D4FBB4205D02C4FBB4207D190880C
:10531000044304E09288154301E090880643491C49
:105320002629E5DB0021029101220321019203914C
:10533000B0B288B100900120FFF7BAFF0120FFF75B
:10534000B9FF69464FF09040FFF71CF80022B1B258
:105350004FF09040FFF763F9A8B280B100900220AF
:10536000FFF7A6FF0220FFF7A5FF134E6946304660
:10537000FFF708F80022A9B23046FFF750F9A0B2B3
:1053800080B100900420FFF793FF0420FFF792FF05
:105390000A4D69462846FEF7F5FF0022A1B22846CD
:1053A000FFF73DF905B0F0BD4C0000584C01005826
:1053B0009008005888800008000400480008004851
:1053C00000B587B04FEA0D0005A11C22FBF79CFF3A
:1053D00000F0D9FD684601F0B3F907B000BD000048
:1053E00000000000000000000000000088800008AD
:1053F000008003200480032026040400DFF83C140E
:1054000081B00A6802430A60096808400090009869
:1054100001B0704778B585B00C46002510B16FF02B
:10542000010530E0DFF818641CB9802030604021AD
:1054300002E040203060802171600FF209320FF2EB
:10544000D9310FF23D3001910392009006F1140022
:105450000FF26521DFF8EC2302910492694601F016
:10546000BFF970B906F11400F060002200F00EF8E8
:10547000DFF8D433F068336122461B680021984777
:1054800008B16FF00605284606B070BD0121DFF8AF
:10549000BC03FFF7C4B810B16FF0010070476FF0A4
:1054A0000A00704710B5002410B16FF001040CE041
:1054B00000F050F8126E32B1C0689047002804D551
:1054C0006FF0040401E000680860204610BD10B5CC
:1054D000002410B16FF001040CE000F03BF8526EB4
:1054E00032B1C0689047002804D56FF0040401E091
:1054F00040680860204610BD10B5002410B16FF060
:1055000001040CE000F022F8C96831B1C068884796
:10551000002804D56FF0040401E06FF00A0420466F
:1055200010BD10B5002410B16FF001040CE000F0C4
:105530000DF8496A31B1C0688847002804D56FF07A
:10554000040401E06FF00A04204610BDDFF8F00209
:1055500001697047DFF8E8020269704738B5002535
:1055600010B16FF001050CE000F026F8246C34B1A6
:10557000C068A047002804D56FF0040501E06FF073
:105580000A05284632BDFEB5002510B16FF00105B1
:1055900010E000F011F8A46C54B1099E089FC06897
:1055A00001960097A047002804D56FF0040501E09C
:1055B0006FF00A052846FEBDA148046970477CB516
:1055C000002510B16FF001050EE0FFF7F5FFE46C68
:1055D00044B1069EC0680096A047002804D56FF02D
:1055E000040501E06FF00A05284676BD7CB500256C
:1055F00010B16FF001050EE0FFF7DEFF246D44B13E
:10560000069EC0680096A047002804D56FF00405E8
:1056100001E06FF00A05284676BD7CB5002410B184
:105620006FF001040CE00798854D069E01900096EE
:10563000E8682D696E6DB047002848BF6FF004041C
:10564000204676BD7CB5002410B16FF001040EE059
:105650007B4D68682B68009001910022E8682D69F5
:105660006E6D0021B047002848BF6FF0040420464B
:1056700076BD70B5002410B16FF0010408E0704DE4
:10568000E8682D69AE6DB047002848BF6FF004048C
:10569000204670BD70B5002410B16FF0010408E021
:1056A000674DE8682D69EE6DB047002848BF6FF080
:1056B0000404204670BD000010B5084611460024C1
:1056C0000A0004D000F005F808B16FF00704204686
:1056D00010BD2DE9F8430D460026012D04466FF05C
:1056E0000707DFF86C81DFF8649132460AD100F0D9
:1056F00020F800F021F80121204601F015FC88B1C6
:105700003E460FE000F014F801224FF400714046CD
:10571000FEF785FF2946204601F006FC00B13E4613
:1057200000F00AF8012200F003F83046BDE8F283E9
:1057300001214846FEF773BF00224FF40071404636
:10574000FEF76DBFF8B50D460022FFF7B5FF002448
:105750006FF0070600B134463C4F00220121384665
:10576000FEF75DFF2CB90221284601F0E7FB00B1EE
:105770003446012201213846FEF751FF2046F2BD92
:1057800030B585B08020FFF739FE012100910191ED
:1057900000242E4D0294039469462846FEF7F2FD3C
:1057A0000022012100F034F80420FFF727FE4FF417
:1057B000007100F024F8264D2846FEF7E3FD002294
:1057C0004FF4007100F024F80420FFF717FE4FF4A7
:1057D000807100F014F82846FEF7D4FD01F05AFB62
:1057E00008B16FF00704002200F010F80120FFF765
:1057F000C0F8012200F00AF8204605B030BD009143
:105800000122019202940394694670474FF480711B
:105810002846FEF704BF000010B501210B480C4CD0
:10582000FEF77CFE4FF400712046FEF777FE4FF442
:1058300080712046FEF772FE002010BD4C0000581B
:10584000D41A0020636F000808100020001C0048D4
:105850000008004838B5DFF894420168DFF890523C
:105860002160426862608168A160C268E26001698B
:105870002161426962618169A161C269E261016A73
:1058800021620021436A63620023806AA062E960AA
:105890002B6105F1140100209047226A05F11801DF
:1058A00000209047A26A05F11C01BDE838400020A5
:1058B000104770B5DFF83852DFF8306204462C61CB
:1058C00005F11401F2699047326A05F1180120468A
:1058D000BDE870401047DFF81812CA6852018850BE
:1058E0007047DFF80C12CA6801EB4211486070473C
:1058F000DFF8FC11CA6801EB4211886070473EB5C1
:1059000000931346069CDFF8E85101940A460146CD
:105910002869DFF8D8416568A84737BD2DE9F04F01
:10592000DFF8CC618046F06806EB4013A9B09868B8
:105930008488C38800680393E71DBD10203A07EBF5
:1059400055775A43FF107A43024404920F46E11DF3
:10595000CA08D200121BC9080025029201910DF15C
:1059600044090DF1140A09E00123009311AA23460A
:1059700039464046FFF7C3FF7F1C6D1C03988542E4
:1059800065D20198019A04996843012A014406D01E
:10599000022A06D10B78487840EA032008E008780C
:1059A00006E048780A788978000240EA0240084315
:1059B000F168029A49017318A218D3F81CC0521E4C
:1059C000BCF1020F2DD1002324E006F1040C5CF899
:1059D00001104FEA511BC1F3C40C0BF4FC6B4BEAF2
:1059E0000C0C11E0F168A2EB030C490120FA0CFE4B
:1059F0005FEACE7BE9D571584FEA511EC1F3C40C62
:105A00000EF4FC6E4EEA0C0CC90C4CEAC1212AF8CB
:105A100013105B1CA342E5D301200090234605AA86
:105A2000A6E74FF0000CA4459ED2A2EB0C0E20FA84
:105A30000EFB5FEACB7E5ABF06F1040E5EF801B0A2
:105A4000D3F800B049F82CB00CF1010CEBE729B009
:105A5000BDE8F08F2DE9F04104464FF0000800202A
:105A6000154600E0401C15F8016B002EFAD1DFF856
:105A70008070FE6807F108057601012BAD597E693B
:105A8000AD88B6FBF5F605D0022B02BF301A68438D
:105A9000041B03E0301A684304EB500414B1B4F55E
:105AA000004F00D301240D4616460EE016F8012BD8
:105AB00029462046FFF732FFF86807F10803400146
:105AC00008F1010819588A88A418307858B1F86884
:105AD00007F10801400109588888796900FB18110D
